:100000000C9462000C948A000C948A000C948A0070
:100010000C948A000C948A000C948A000C948A0038
:100020000C948A000C948A000C948A000C948A0028
:100030000C948A000C948A000C948A000C948A0018
:100040000C94F1030C948A000C9434020C9470020A
:100050000C948A000C948A000C948A000C948A00F8
:100060000C948A000C948A00000000070002010032
:100070000003040600000000000000000102040864
:100080001020408001020408102001020408102002
:10009000040404040404040402020202020203032E
:1000A00003030303000000002300260029000000D2
:1000B0000000250028002B0000000000240027007D
:1000C0002A002B0311241FBECFEFD8E0DEBFCDBF27
:1000D00011E0A0E0B1E0E0E4F9E002C005900D928B
:1000E000A033B107D9F711E0A0E3B1E001C01D9240
:1000F000A23EB107E1F710E0C4ECD0E004C02297C3
:10010000FE010E949A04C23CD107C9F70E947B03FA
:100110000C949E040C94000060E0809102010E9407
:10012000000161E0809100010E94000140E855E279
:1001300060E070E082E391E00C94AB02CF93DF9338
:10014000809102010E946F01EC0181309105B1F4B0
:1001500061E0809100010E9438018091300190910E
:100160003101892B01F564E071E082E391E00E94A6
:10017000DD03D0933101C093300115C060E0809160
:1001800000010E9438018091300190913101019766
:1001900051F462E171E082E391E00E94DD0310928C
:1001A000310110923001DF91CF910895833069F0D1
:1001B00028F48130A1F0823011F514C08630B1F0FE
:1001C0008730C1F08430D9F404C0809180008F77EB
:1001D00003C0809180008F7D80938000089584B556
:1001E0008F7702C084B58F7D84BD08958091B00063
:1001F0008F7703C08091B0008F7D8093B000089509
:10020000CF93DF9390E0FC01E458FF4F4491FC0151
:10021000E057FF4F8491882341F190E0880F991FA8
:10022000FC01E854FF4F25913491D90182559F4F2D
:10023000FC0185919491C82FD92F9FB7F8948C9188
:10024000611106C0409584238C938881842308C063
:10025000623041F4242F209582238C938881842B53
:10026000888302C0842B8C939FBFDF91CF91089528
:100270000F931F93CF93DF931F92CDB7DEB7282F35
:1002800030E0F901E859FF4F8491F901E458FF4F3C
:100290001491F901E057FF4F04910023D1F0882316
:1002A00021F069830E94D6006981E02FF0E0EE0F13
:1002B000FF1FE255FF4F85919491DC019FB7F894A1
:1002C0008C91611103C01095812301C0812B8C9307
:1002D0009FBF0F90DF91CF911F910F910895CF9302
:1002E000DF93282F30E0F901E859FF4F8491F9019D
:1002F000E458FF4FD491F901E057FF4FC491CC234C
:1003000089F081110E94D600EC2FF0E0EE0FFF1F64
:10031000EC55FF4F85919491DC018C918D2321E068
:1003200030E011F420E030E0C901DF91CF91089571
:10033000FC0184859585FC01E05CFF4F20813181C3
:10034000FC01EE5BFF4F80819181281B390B2F73DD
:100350003327C9010895FC0184859585FC01E05C83
:10036000FF4F40815181FC01EE5BFF4F20813181C5
:100370004217530741F00190F081E02DE80FF91F7B
:10038000208130E002C02FEF3FEFC9010895FC014A
:1003900084859585FC01E05CFF4F40815181FC0123
:1003A000EE5BFF4F208131814217530781F0A0811E
:1003B000B181A80FB91F8C91208131812F5F3F4FF0
:1003C0002F73332731832083282F30E002C02FEF93
:1003D0003FEFC9010895FC0186859785FC01E05C2B
:1003E000FF4FDC01AE5BBF4F408151812D913C91AD
:1003F000119742175307C1F70895CF93DF93FC017C
:1004000086859785DC01A05CBF4F2D913C911197AB
:100410002F5F3F4F2F733327EC01CE5BDF4F4881B7
:10042000598124173507D9F30D90BC91A02DA80F41
:10043000B91F6C93A685B785A05CBF4F11963C93FE
:100440002E93A689B7892C9181E090E0058C02C09B
:10045000880F991F0A94E2F7282B2C9381E090E0F3
:10046000DF91CF91089508951F920F920FB60F92CA
:1004700011242F933F934F938F939F93EF93FF9369
:100480004091C6008091D5019091D60101968F735D
:1004900099272091D7013091D8018217930759F0FD
:1004A000E091D501F091D601EB56FE4F4083909339
:1004B000D6018093D501FF91EF919F918F914F913C
:1004C0003F912F910F900FBE0F901F90189582E3D0
:1004D00091E00E949801892B11F00C943302089549
:1004E0001F920F920FB60F9211242F933F938F9369
:1004F0009F93EF93FF93209191013091920180910E
:100500009301909194012817390731F48091C1002B
:100510008F7D8093C10014C0E0919301F09194010C
:10052000EF5AFE4F208180919301909194010196A2
:100530008F73992790939401809393012093C60021
:10054000FF91EF919F918F913F912F910F900FBE4F
:100550000F901F901895CF92DF92EF92FF92CF935A
:10056000DF93EC016A017B01411581EE58076105BB
:100570007105F9F0EC89FD8981E090E00E8C02C0F4
:10058000880F991F0A94E2F7808360E079E08DE399
:1005900090E0A70196010E9476042150310941099B
:1005A00051095695479537952795211580E13807CC
:1005B00098F0EC89FD89108260E874E88EE190E0A3
:1005C000A70196010E947604215031094109510981
:1005D0005695479537952795E889F9893083EA89B3
:1005E000FB892083EE89FF89408181E090E09C01B6
:1005F0000A8C02C0220F331F0A94E2F7422B408379
:10060000EE89FF8940819C010B8C02C0220F331FB1
:100610000A94E2F7422B4083EE89FF8940819C01D6
:100620000C8C02C0220F331F0A94E2F7422B408346
:10063000EE89FF8920810D8C02C0880F991F0A94D2
:10064000E2F7809582238083DF91CF91FF90EF9036
:10065000DF90CF900895109235011092340188EE0A
:1006600093E0A0E0B0E08093360190933701A0932F
:100670003801B093390184E291E090933301809383
:10068000320185E991E090933F0180933E0181E53D
:1006900091E0909341018093400185EC90E090932C
:1006A00043018093420184EC90E090934501809354
:1006B000440180EC90E0909347018093460181ECE7
:1006C00090E0909349018093480186EC90E09093EC
:1006D0004B0180934A0184E080934C0183E0809336
:1006E0004D0187E080934E0185E080934F0181E0CA
:1006F0008093500108950E943B040E948C00C7E63D
:10070000D2E00E949E002097E1F30E946702F9CF99
:10071000CF92DF92EF92FF920F931F93CF93DF93CD
:100720006C01EB017A01E60EF71E00E010E00BC051
:100730006991D601ED91FC910190F081E02DC60107
:100740000995080F191FCE15DF0591F7C801DF9134
:10075000CF911F910F91FF90EF90DF90CF90089570
:10076000DB010D900020E9F7AD0141505109461B16
:10077000570BDC01ED91FC910280F381E02D09948F
:10078000DC01ED91FC910190F081E02D09940F9333
:100790001F93CF93DF93EC016DE00E94C0038C01A7
:1007A0006AE0CE010E94C0039C01200F311FC901E5
:1007B000DF91CF911F910F9108950F931F93CF93C6
:1007C000DF93EC010E94B0038C01CE010E94C703AD
:1007D0009801280F391FC901DF91CF911F910F9107
:1007E00008951F920F920FB60F9211242F933F93EB
:1007F0008F939F93AF93BF938091D9019091DA012A
:10080000A091DB01B091DC013091E101232F2D5F3C
:100810002D3720F40196A11DB11D05C0232F2A57A5
:100820000296A11DB11D2093E1018093D9019093FF
:10083000DA01A093DB01B093DC018091DD0190919E
:10084000DE01A091DF01B091E0010196A11DB11D73
:100850008093DD019093DE01A093DF01B093E0016E
:10086000BF91AF919F918F913F912F910F900FBEAC
:100870000F901F901895789484B5826084BD84B5DC
:10088000816084BD85B5826085BD85B5816085BD8B
:10089000EEE6F0E0808181608083E1E8F0E01082A4
:1008A000808182608083808181608083E0E8F0E0E5
:1008B000808181608083E1EBF0E0808184608083CF
:1008C000E0EBF0E0808181608083EAE7F0E0808106
:1008D0008460808380818260808380818160808366
:1008E0008081806880831092C1000895A1E21A2E51
:1008F000AA1BBB1BFD010DC0AA1FBB1FEE1FFF1FC4
:10090000A217B307E407F50720F0A21BB30BE40B13
:10091000F50B661F771F881F991F1A9469F760955A
:100920007095809590959B01AC01BD01CF01089514
:10093000EE0FFF1F0590F491E02D0994F894FFCF7E
:10094000030002007768697465427574746F6E3ACB
:1009500031007768697465427574746F6E3A30005F
:1009600000000000FD0188039801C701AB01EB0105
:00000001FF
