:100000000C9464000C948C000C948C000C948C0068
:100010000C948C000C948C000C948C000C948C0030
:100020000C948C000C948C000C948C000C94F501B6
:100030000C948C000C948C000C948C000C948C0010
:100040000C9459060C948C000C94E6070C9422082E
:100050000C948C000C948C000C948C000C948C00F0
:100060000C948C000C948C0000000007000201002E
:100070000003040600000000000000000102040864
:100080001020408001020408102001020408102002
:10009000040404040404040402020202020203032E
:1000A00003030303000000002300260029000000D2
:1000B0000000250028002B0000000000240027007D
:1000C0002A00E001DD08F10111241FBECFEFD8E0C6
:1000D000DEBFCDBF11E0A0E0B1E0EAE2F3E202C092
:1000E00005900D92A039B107D9F712E0A0E9B1E06F
:1000F00001C01D92AB38B107E1F710E0C6ECD0E0CB
:1001000004C02297FE010E94FD0EC23CD107C9F730
:100110000E942D090C9488110C94000060E08091DD
:1001200008010E94C10561E0809106010E94C1059D
:1001300040E855E260E070E080EE91E00E945D08EA
:1001400080E991E00E94EE036BE070E08EE991E0BF
:100150000E9450031092B0011092AF010895EF92E7
:10016000FF920F931F93CF93DF93CDB7DEB7EDB61A
:10017000FEB64091A6015091A7014F5F5F4F8DB72A
:100180009EB7841B950B0FB6F8949EBF0FBE8DBF14
:100190000DB71EB70F5F1F4F20E030E0B80182EAB5
:1001A00091E00E94680AC8010E940C110FB6F894F1
:1001B000FEBE0FBEEDBEDF91CF911F910F91FF905C
:1001C000EF9008958F929F92AF92BF92CF92DF925D
:1001D000EF92FF92CF93809108010E9430067C013C
:1001E00081309105F9F461E0809106010E94F905E2
:1001F0008091AD019091AE01892B51F46AE071E0DC
:1002000080EE91E00E94E90AF092AE01E092AD0129
:10021000C1E080EE91E00E944A072091A101892B64
:1002200049F58CC060E0809106010E94F90580913B
:10023000AD019091AE01019759F768E171E080EE50
:1002400091E00E94E90A1092AE011092AD01E0CF58
:100250006EE371E082EA91E00E940F0ADACF8D37F7
:1002600019F4C093A101D5CF682F82EA91E00E94D2
:10027000550ACFCF222309F459C060C00E94AF00B5
:100280007C019093B0018093AF011092A10166E2CE
:1002900071E080EE91E00E94CA0A4AE050E0B701A6
:1002A00080EE91E00E94A40B6091AF017091B001CB
:1002B0008EE991E00E9489030E94A306C090A901E3
:1002C000D090AA01E090AB01F090AC016C197D09CF
:1002D0008E099F09613375478105910508F466C051
:1002E0000E94A3066093A9017093AA018093AB01B9
:1002F0009093AC0180E991E00E94B0044B015C0155
:1003000060E080E991E00E94FE046B017C019B01AA
:10031000AC010E94920E811115C0A5019401C50186
:10032000B4010E94920E8823E1F00CC080EE91E0AF
:100330000E9479078B3709F092CF8ACF213009F0DC
:10034000B3CF9CCF6FE371E080EE91E0CF91FF904F
:10035000EF90DF90CF90BF90AF909F908F900C94D4
:10036000E90A6DE571E080EE91E00E94CA0A22E0A0
:1003700030E0B501A40180EE91E00E94670C67E6D1
:1003800071E080EE91E00E94CA0A22E030E0B701FD
:10039000A60180EE91E0CF91FF90EF90DF90CF909B
:1003A000BF90AF909F908F900C94670CCF91FF906F
:1003B000EF90DF90CF90BF90AF909F908F90089577
:1003C0006EE371E082EA91E00E94F2098EE991E029
:1003D0000E94B30226E04BE06EE080E991E00C94CD
:1003E000E70382EA91E00C9481091F920F920FB605
:1003F0000F9211242F933F934F935F936F937F93AB
:100400008F939F93AF93BF93EF93FF938091B2012C
:1004100087FF05C010928500109284001AC02091B9
:10042000B201332727FD30958091B10190E0281764
:1004300039077CF48091B201992787FD9095FC01E2
:10044000EE0FFF1FE80FF91FED54FE4F808186FD70
:1004500037C08091B2018F5F8093B2012091B201C9
:10046000332727FD30958091B10190E02817390797
:10047000CCF58091B2018C30F4F134C08091B2019E
:10048000992787FD9095FC01EE0FFF1FE80FF91FDC
:10049000ED54FE4F808161E08F730E94F90552C0D8
:1004A00080E49CE905C080918400909185000496C9
:1004B00090938900809388008FEF8093B20142C0AF
:1004C0008091B201992787FD9095FC01EE0FFF1FE7
:1004D000E80FF91FED54FE4F808160E08F730E949A
:1004E000F905B7CF809184009091850004968034FF
:1004F0009C49B0F2D8CF80918400909185002091E2
:10050000B201332727FD3095F901EE0FFF1FE20FEF
:10051000F31FED54FE4F21813281820F931F909380
:100520008900809388008091B201992787FD90957A
:10053000FC01EE0FFF1FE80FF91FED54FE4F808105
:1005400086FD9CCFFF91EF91BF91AF919F918F91CD
:100550007F916F915F914F913F912F910F900FBEBF
:100560000F901F9018952091B1012C30A0F4FC0140
:100570002083822F8F5F8093B101822F90E0FC0156
:10058000EE0FFF1FE80FF91FED54FE4F88EB9BE0C5
:100590009283818308952FEFFC0120830895DF92D9
:1005A000EF92FF920F931F93CF93DF93EC01D62E20
:1005B0007A01890188818C3008F065C061E08D2D59
:1005C0000E94C1058881A82FB0E0FD01EE0FFF1F3A
:1005D000EA0FFB1FED54FE4F2D2D2F739081907C61
:1005E000922B908360E272E06E197F0977FF02C060
:1005F0006D5F7F4F7595679575956795698340E643
:1006000059E0401B510B57FF02C04D5F5F4F55959E
:100610004795559547954A836CE00E94A60E9CE04D
:10062000899FB001112420E030E0A901460F571F37
:10063000FA01EE0FFF1FE40FF51FED54FE4F9081FE
:1006400096FD15C02F5F3F4F2C30310571F71DC04F
:100650001092800082E080938100109285001092B9
:100660008400B19A80916F00826080936F008881CE
:1006700090E0FC01EE0FFF1FE80FF91FED54FE4F55
:10068000808180648083888103C0882309F3EFCF51
:10069000DF91CF911F910F91FF90EF90DF90089520
:1006A00020E639E040E252E00C94CF02FC01808168
:1006B0008C3070F5918128E830E0291B310997FDD5
:1006C0003395220F331F220F331F621773077CF0FD
:1006D000928128E532E0291B310997FD3395220FDD
:1006E000331F220F331F621773070CF49B014FB7A0
:1006F000F89490E0FC01EE0FFF1FE80FF91FED5496
:10070000FE4F22503109220F331F328321834FBF06
:100710000895AF92BF92CF92DF92EF92FF920F9324
:100720001F93CF93DF93EC01603282E078070CF0E7
:1007300041C077FD04C0653B710524F405C060E04D
:1007400070E002C064EB70E0298188E890E0821BD1
:10075000910927FD9395880F991F880F991F5C01B8
:10076000CC24B7FCC094DC2C882777FD8095982F8B
:100770002A8148E552E0421B510927FD5395440F59
:10078000551F440F551F8A01222717FD2095322F30
:100790003F932F931F930F9314EBE12EF12C00E066
:1007A00010E020E030E0A9010E943A090F900F907C
:1007B0000F900F90CE01DF91CF911F910F91FF907D
:1007C000EF90DF90CF90BF90AF900C945603FC0158
:1007D00066834783208781E085870895CF93DF93E1
:1007E000EC0160E08E810E94C10561E08E810E9473
:1007F000F90519861A861B861C86DF91CF9108950C
:10080000DF92EF92FF920F931F93CF93DF93EC0150
:1008100061E08E810E94F9056AEF70E080E090E06F
:100820000E94DF060E94A30609851A852B853C8558
:10083000601771078207930720F419861A861B86B2
:100840001C862D85211111C009851A852B853C85B3
:10085000DC01CB01801B910BA20BB30B803D9740B9
:10086000A105B10510F481E073C01D860E94A306A6
:1008700069877A878B879C871C821B821A821982E0
:10088000188261E08E810E94C10560E08E810E9425
:10089000F90564E170E080E090E00E94DF06F894E2
:1008A00061E08E810E94F90588E290E00E940507D0
:1008B00060E08E810E94C105F12CD12C81E009C03D
:1008C000E39481E090E00E9405078FEFE81204C0F6
:1008D00009C0E12C082F10E08E810E94300680179D
:1008E000910771F38E810E9430069FEFE916C9F0DF
:1008F00023E02F1590F4F0FC10C09D2D9695969551
:100900009695FE01E90FF11D9081990F908328853E
:100910002E1510F491609083D394F39495E5F91219
:10092000D8CF789427E22D1590F42C8130E04881BF
:10093000898190E0840F911D4A81840F911D4B8124
:10094000840F911D99272817390709F48CCF80E06F
:10095000DF91CF911F910F91FF90EF90DF9008955D
:10096000EF92FF920F931F93CF93DF93EC010E94BE
:100970000004882391F18F818B3029F070F185512B
:10098000823058F507C0688170E080E090E00E94F6
:100990007D0D2DC0688170E080E090E00E947D0DAB
:1009A00020E030E040E853E40E942F0E7B018C01F0
:1009B000698170E080E090E00E947F0D9B01AC01B6
:1009C0006E2D7F2D802F912F0E947C0C20E030E037
:1009D00040E251E40E94E40C0AC064E771E080EE5A
:1009E00091E00E94CA0A60E070E080EC9FE7DF912E
:1009F000CF911F910F91FF90EF900895CF92DF92CA
:100A0000EF92FF920F931F93CF93DF938C01C62F2A
:100A10000E940004882309F477C0F80187818B3095
:100A200039F008F471C08551823008F06DC01DC0E6
:100A3000F801628170E080E090E00E947D0DB62FA9
:100A4000A72FF82FE92F462F572F682F792FCB018B
:100A5000BA01CC2309F462C020E030E040E151E467
:100A60006B2F7A2F8F2F9E2F37C0F801D2816D2FD9
:100A70006F7770E080E090E00E947F0D20E030E032
:100A800040E853E40E942F0E6B017C01F801638162
:100A900070E080E090E00E947F0D9B01AC016C2D26
:100AA0007D2D8E2D9F2D0E947C0C20E030E040E2B9
:100AB00051E40E94E40C472F382F292F862F942FC2
:100AC000A32FB22FBC01CD01D7FD9058CC2331F11B
:100AD00020E030E040E151E40E942F0E20E030E0C1
:100AE00040EA50E40E94E40C20E030E040E052E4B0
:100AF0000E947C0C472F382F292F862F942FA32F4D
:100B0000B22FBC01CD010AC064E771E080EE91E034
:100B10000E94CA0A60E070E080EC9FE7DF91CF910D
:100B20001F910F91FF90EF90DF90CF900895833049
:100B300069F028F48130A1F0823011F514C08630BC
:100B4000B1F08730C1F08430D9F404C080918000C6
:100B50008F7703C0809180008F7D809380000895FF
:100B600084B58F7702C084B58F7D84BD0895809150
:100B7000B0008F7703C08091B0008F7D8093B0006C
:100B80000895CF93DF9390E0FC01E458FF4F449128
:100B9000FC01E057FF4F8491882341F190E0880FDA
:100BA000991FFC01E854FF4F25913491D9018255DA
:100BB0009F4FFC0185919491C82FD92F9FB7F8942E
:100BC0008C91611106C0409584238C938881842385
:100BD00008C0623041F4242F209582238C938881B1
:100BE000842B888302C0842B8C939FBFDF91CF918D
:100BF00008950F931F93CF93DF931F92CDB7DEB766
:100C0000282F30E0F901E859FF4F8491F901E458A9
:100C1000FF4F1491F901E057FF4F04910023D1F0E9
:100C2000882321F069830E9497056981E02FF0E015
:100C3000EE0FFF1FE255FF4F85919491DC019FB7A6
:100C4000F8948C91611103C01095812301C0812B10
:100C50008C939FBF0F90DF91CF911F910F910895BB
:100C6000CF93DF93282F30E0F901E859FF4F8491AB
:100C7000F901E458FF4FD491F901E057FF4FC491B7
:100C8000CC2389F081110E949705EC2FF0E0EE0F44
:100C9000FF1FEC55FF4F85919491DC018C918D23C2
:100CA00021E030E011F420E030E0C901DF91CF9184
:100CB00008951F920F920FB60F9211242F933F9316
:100CC0008F939F93AF93BF938091D7019091D80159
:100CD000A091D901B091DA013091DF01232F2D5F6E
:100CE0002D3720F40196A11DB11D05C0232F2A57D1
:100CF0000296A11DB11D2093DF018093D70190932F
:100D0000D801A093D901B093DA018091DB019091D1
:100D1000DC01A091DD01B091DE010196A11DB11DA4
:100D20008093DB019093DC01A093DD01B093DE01A1
:100D3000BF91AF919F918F913F912F910F900FBED7
:100D40000F901F9018950F931F938FB7F8940091F1
:100D5000D7011091D8012091D9013091DA018FBFCC
:100D6000B801C9011F910F9108950F931F939FB769
:100D7000F8940091DB011091DC012091DD013091AC
:100D8000DE0186B5A89B06C08F3F21F00F5F1F4F85
:100D90002F4F3F4F9FBF322F212F102F0027080FBB
:100DA000111D211D311D42E0000F111F221F331F95
:100DB0004A95D1F7B801C9011F910F910895CF92BB
:100DC000DF92EF92FF92CF93DF936B017C010E9441
:100DD000B506EB010EC00E94B5066C1B7D0B683E8C
:100DE000734038F081E0C81AD108E108F108C85111
:100DF000DC4FC114D104E104F10469F7DF91CF9114
:100E0000FF90EF90DF90CF900895019739F0880F11
:100E1000991F880F991F02970197F1F70895789409
:100E200084B5826084BD84B5816084BD85B58260EF
:100E300085BD85B5816085BDEEE6F0E0808181608D
:100E40008083E1E8F0E0108280818260808380818D
:100E500081608083E0E8F0E0808181608083E1EB65
:100E6000F0E0808184608083E0EBF0E0808181604D
:100E70008083EAE7F0E08081846080838081826003
:100E800080838081816080838081806880831092EC
:100E9000C1000895FC0184859585FC01E05CFF4F4D
:100EA00020813181FC01EE5BFF4F80819181281B05
:100EB000390B2F733327C9010895FC01848595856B
:100EC000FC01E05CFF4F40815181FC01EE5BFF4F74
:100ED000208131814217530741F00190F081E02DCC
:100EE000E80FF91F208130E002C02FEF3FEFC9016A
:100EF0000895FC0184859585FC01E05CFF4F4081ED
:100F00005181FC01EE5BFF4F208131814217530775
:100F100081F0A081B181A80FB91F8C91208131810E
:100F20002F5F3F4F2F73332731832083282F30E0EB
:100F300002C02FEF3FEFC9010895FC018685978518
:100F4000FC01E05CFF4FDC01AE5BBF4F4081518193
:100F50002D913C91119742175307C1F70895CF93F4
:100F6000DF93FC0186859785DC01A05CBF4F2D9146
:100F70003C9111972F5F3F4F2F733327EC01CE5BCE
:100F8000DF4F4881598124173507D9F30D90BC9163
:100F9000A02DA80FB91F6C93A685B785A05CBF4F85
:100FA00011963C932E93A689B7892C9181E090E00D
:100FB000058C02C0880F991F0A94E2F7282B2C9306
:100FC00081E090E0DF91CF91089508951F920F92F4
:100FD0000FB60F9211242F933F934F938F939F93AC
:100FE000EF93FF934091C600809183029091840219
:100FF00001968F739927209185023091860282177E
:10100000930759F0E0918302F0918402ED5BFD4F6C
:1010100040839093840280938302FF91EF919F918C
:101020008F914F913F912F910F900FBE0F901F9076
:10103000189580EE91E00E944A07892B11F00C94DC
:10104000E50708951F920F920FB60F9211242F9368
:101050003F938F939F93EF93FF9320913F023091A3
:10106000400280914102909142022817390731F4E1
:101070008091C1008F7D8093C10014C0E091410236
:10108000F0914202E150FE4F208180914102909107
:10109000420201968F7399279093420280934102F6
:1010A0002093C600FF91EF919F918F913F912F91D7
:1010B0000F900FBE0F901F901895CF92DF92EF9276
:1010C000FF92CF93DF93EC016A017B01411581EE22
:1010D000580761057105F9F0EC89FD8981E090E020
:1010E0000E8C02C0880F991F0A94E2F7808360E09B
:1010F00079E08DE390E0A70196010E94B20E2150A5
:10110000310941095109569547953795279521157C
:1011100080E1380798F0EC89FD89108260E874E876
:101120008EE190E0A70196010E94B20E2150310994
:10113000410951095695479537952795E889F989C9
:101140003083EA89FB892083EE89FF89408181E031
:1011500090E09C010A8C02C0220F331F0A94E2F730
:10116000422B4083EE89FF8940819C010B8C02C099
:10117000220F331F0A94E2F7422B4083EE89FF8946
:1011800040819C010C8C02C0220F331F0A94E2F7AD
:10119000422B4083EE89FF8920810D8C02C0880F8D
:1011A000991F0A94E2F7809582238083DF91CF9183
:1011B000FF90EF90DF90CF9008951092E30110928E
:1011C000E20188EE93E0A0E0B0E08093E401909328
:1011D000E501A093E601B093E70182E891E09093E6
:1011E000E1018093E00183E492E09093ED0180932C
:1011F000EC018FEF91E09093EF018093EE0185EC8D
:1012000090E09093F1018093F00184EC90E0909352
:10121000F3018093F20180EC90E09093F5018093CC
:10122000F40181EC90E09093F7018093F60186EC55
:1012300090E09093F9018093F80184E08093FA01A3
:1012400083E08093FB0187E08093FC0185E080933D
:10125000FD0181E08093FE0108950E940F070E9426
:101260008E00C9E1D8E00E94E2002097E1F30E94DD
:101270001908F9CF4F925F926F927F92AF92BF920F
:10128000CF92DF92EF92FF920F931F93CF93DF9352
:10129000CDB7DEB729013A01621B730B840B950BA6
:1012A00029893A894B895C892A193B094C095D09CE
:1012B000298B3A8B4B8B5C8B9B01AC0169897A89BA
:1012C0008B899C890E94960EE418F5080609170977
:1012D000A80197010E94D40E2A0D3B1D4C1D5D1DD7
:1012E000B901CA01DF91CF911F910F91FF90EF904B
:1012F000DF90CF90BF90AF907F906F905F904F90B6
:101300000895FC01808191810C94A80FCF93DF9305
:10131000EC0188819981009711F00E94A80F198231
:1013200018821D821C821B821A82DF91CF91089540
:101330000F931F93CF93DF93EC018B016F5F7F4F70
:10134000888199810E944410009731F099838883A5
:101350001B830A8381E001C080E0DF91CF911F9160
:101360000F910895CF93DF93EC0188819981892BA8
:1013700031F08A819B818617970708F00CC0CE0157
:101380000E949809882349F08C819D81892B19F44A
:10139000E881F981108281E001C080E0DF91CF9186
:1013A0000895EF92FF920F931F93CF93DF93EC0179
:1013B0007B018A01BA010E94B209811104C0CE01E9
:1013C0000E94860907C01D830C83B701888199811B
:1013D0000E943311CE01DF91CF911F910F91FF90A9
:1013E000EF900895DC0111961C921E9213961C92A8
:1013F0001E92129715961C921E92149716961C9286
:101400006115710559F0DB010D900020E9F7AD0180
:1014100041505109461B570B0C94D1090895CF93A5
:10142000DF93D82FC92F6115710561F0DB010D9095
:101430000020E9F7AD0141505109461B570B0E94AE
:10144000D10902C00E9486098D2F9C2FDF91CF9178
:101450000895EF92FF920F931F93CF93DF93EC01C8
:101460007B010C811D816115710511F480E016C0AE
:101470004115510591F0040F151FB8010E94B209E2
:101480008823A1F3288139818C819D81B701820F46
:10149000931F0E9433111D830C8381E0DF91CF9154
:1014A0001F910F91FF90EF900895CF93DF9300D09D
:1014B000CDB7DEB769831A8241E050E0BE016F5FAD
:1014C0007F4F0E94290A0F900F90DF91CF910895CE
:1014D0000F931F93CF93DF93EB0141155105E9F073
:1014E0002097D9F0FC01048115812017310708F0FD
:1014F00013C041505109021B130B4017510708F448
:101500008A01FC0160817181620F731FA801CE0105
:101510000E943A11C00FD11F1882DF91CF911F9105
:101520000F910895CF92DF92EF92FF920F931F9346
:10153000CF93DF936C01EB017A01E60EF71E00E01A
:1015400010E00BC06991D601ED91FC910190F08102
:10155000E02DC6010995080F191FCE15DF0591F77B
:10156000C801DF91CF911F910F91FF90EF90DF9015
:10157000CF900895DB010D900020E9F7AD014150B7
:101580005109461B570BDC01ED91FC910280F38160
:10159000E02D09940C94BA0ADC01ED91FC910190C4
:1015A000F081E02D09940F931F93CF93DF93EC010B
:1015B0006DE00E94CC0A8C016AE0CE010E94CC0A48
:1015C0009C01200F311FC901DF91CF911F910F9115
:1015D00008950F931F93CF93DF93EC010E94BA0AF3
:1015E0008C01CE010E94D30A9801280F391FC9012E
:1015F000DF91CF911F910F9108954F925F926F925B
:101600007F929F92AF92BF92CF92DF92EF92FF9222
:101610000F931F93CF93DF93CDB7DEB7A1970FB68C
:10162000F894DEBF0FBECDBF5C016A017B01922E34
:1016300019A281E0821710F08AE0982E8E010F5DCA
:101640001F4F492C512C612C712CC701B601A301ED
:1016500092010E94B20E8C2D929E8019112401508D
:1016600011098A3014F4805D01C0895CF80180831F
:1016700069017A01C114D104E104F10431F7B80120
:10168000C5010E94BA0AA1960FB6F894DEBF0FBE3C
:10169000CDBFDF91CF911F910F91FF90EF90DF9021
:1016A000CF90BF90AF909F907F906F905F904F9042
:1016B0000895CF92DF92EF92FF920F931F93CF93F3
:1016C000DF93EC016A017B012115310579F4E88192
:1016D000F9810190F081E02D642FDF91CF911F916E
:1016E0000F91FF90EF90DF90CF9009942A30310551
:1016F00019F477FD0EC02AE0B701A601CE01DF91F3
:10170000CF911F910F91FF90EF90DF90CF900C94AD
:10171000FD0A6DE20E94CC0A8C0144275527BA01CC
:101720004C195D096E097F092AE0CE010E94FD0A6D
:10173000080F191FC801DF91CF911F910F91FF90E2
:10174000EF90DF90CF9008950F931F93CF93DF9387
:10175000EC019A01AB01662757FD6095762F0E9438
:10176000590B8C01CE010E94D30A9801280F391F12
:10177000C901DF91CF911F910F9108957F928F92B0
:101780009F92AF92BF92CF92DF92EF92FF920F9310
:101790001F93CF93DF938C014A015B01F22E20E06F
:1017A00030E0A901C501B4010E94E00C87FF0AC026
:1017B0006DE2C8010E94CC0AEC01B7FAB094B7F808
:1017C000B09402C0C0E0D0E0E12C60E070E080E0C6
:1017D0009FE307C020E030E040E251E40E94E40CC7
:1017E000E394EF10F7CF262F372F482F592FC5013D
:1017F000B4010E947C0C762E872E982EA92E0E9472
:10180000510DB62EC72ED82EE92E0E947D0D9B01BC
:10181000AC01672D782D892D9A2D0E947B0CA62E68
:10182000972E882E792E2AE04B2D5C2D6D2D7E2D46
:10183000C8010E94FD0AC80FD91FFF20B9F16EE848
:1018400071E0C8010E94BA0AC80FD91F2FC020E05A
:1018500030E040E251E46A2D792D882D972D0E94C9
:101860002F0E762EC72ED82EE92E0E944C0D4B013E
:10187000AA2497FCA094BA2C2AE030E0B501A40178
:10188000C8010E94590BC80FD91FC501B4010E949D
:101890007F0D9B01AC01672D7C2D8D2D9E2D0E940F
:1018A0007B0CA62E972E882E792EFA94F110CFCF8E
:1018B000CE01DF91CF911F910F91FF90EF90DF90BC
:1018C000CF90BF90AF909F908F907F9008950F938F
:1018D0001F93CF93DF93EC010E94BE0B8C01CE01CE
:1018E0000E94D30A9801280F391FC901DF91CF91B7
:1018F0001F910F9108955058BB27AA270ED075C18C
:1019000066D130F06BD120F031F49F3F11F41EF41A
:101910005BC10EF4E095E7FB51C1E92F77D180F36D
:10192000BA17620773078407950718F071F49EF5DC
:101930008FC10EF4E0950B2EBA2FA02D0B01B9012B
:1019400090010C01CA01A0011124FF27591B99F035
:10195000593F50F4503E68F11A16F040A22F232F41
:10196000342F4427585FF3CF469537952795A79591
:10197000F0405395C9F77EF41F16BA0B620B730B38
:10198000840BBAF09150A1F0FF0FBB1F661F771FA9
:10199000881FC2F70EC0BA0F621F731F841F48F45E
:1019A000879577956795B795F7959E3F08F0B3CFE4
:1019B0009395880F08F09927EE0F979587950895CE
:1019C000D9D008F481E008950CD00FC107D140F0C0
:1019D000FED030F021F45F3F19F0F0C0511139C151
:1019E000F3C014D198F39923C9F35523B1F3951B90
:1019F000550BBB27AA2762177307840738F09F5F30
:101A00005F4F220F331F441FAA1FA9F333D00E2E9E
:101A10003AF0E0E830D091505040E695001CCAF70B
:101A200029D0FE2F27D0660F771F881FBB1F2617D0
:101A300037074807AB07B0E809F0BB0B802DBF01A3
:101A4000FF2793585F4F2AF09E3F510568F0B6C0BC
:101A500000C15F3FECF3983EDCF386957795679580
:101A6000B795F7959F5FC9F7880F911D9695879554
:101A700097F90895E1E0660F771F881FBB1F621773
:101A800073078407BA0720F0621B730B840BBA0B31
:101A9000EE1F88F7E095089504D06894B111D9C07D
:101AA0000895BCD088F09F5790F0B92F9927B7516F
:101AB000A0F0D1F0660F771F881F991F1AF0BA9512
:101AC000C9F712C0B13081F0C3D0B1E00895C0C0F1
:101AD000672F782F8827B85F39F0B93FCCF3869508
:101AE00077956795B395D9F73EF490958095709565
:101AF00061957F4F8F4F9F4F0895E89409C097FBE2
:101B00003EF490958095709561957F4F8F4F9F4FD4
:101B10009923A9F0F92F96E9BB279395F695879518
:101B200077956795B795F111F8CFFAF4BB0F11F4DB
:101B300060FF1BC06F5F7F4F8F4F9F4F16C0882382
:101B400011F096E911C0772321F09EE8872F762FB8
:101B500005C0662371F096E8862F70E060E02AF0F9
:101B60009A95660F771F881FDAF7880F96958795E5
:101B700097F90895990F0008550FAA0BE0E8FEEFBA
:101B800016161706E807F907C0F012161306E40741
:101B9000F50798F0621B730B840B950B39F40A263A
:101BA00061F0232B242B252B21F408950A2609F418
:101BB000A140A6958FEF811D811D089597F99F671C
:101BC00080E870E060E008959FEF80EC08950024C5
:101BD0000A941616170618060906089500240A9492
:101BE00012161306140605060895092E0394000C18
:101BF00011F4882352F0BB0F40F4BF2B11F460FFA7
:101C000004C06F5F7F4F8F4F9F4F089557FD9058CF
:101C1000440F551F59F05F3F71F04795880F97FBB0
:101C2000991F61F09F3F79F087950895121613066A
:101C30001406551FF2CF4695F1DF08C01616170699
:101C40001806991FF1CF86957105610508940895CE
:101C5000E894BB2766277727CB0197F908950BD027
:101C6000C4CFB5DF28F0BADF18F0952309F0A6CF6E
:101C7000ABCF1124EECFCADFA0F3959FD1F3950F20
:101C800050E0551F629FF001729FBB27F00DB11D00
:101C9000639FAA27F00DB11DAA1F649F6627B00D90
:101CA000A11D661F829F2227B00DA11D621F739F79
:101CB000B00DA11D621F839FA00D611D221F749F87
:101CC0003327A00D611D231F849F600D211D822FCE
:101CD000762F6A2F11249F5750408AF0E1F0882315
:101CE0004AF0EE0FFF1FBB1F661F771F881F915022
:101CF0005040A9F79E3F510570F060CFAACF5F3FDB
:101D0000ECF3983EDCF3869577956795B795F79554
:101D1000E7959F5FC1F7FE2B880F911D96958795DC
:101D200097F9089527DF880B990B0895DB018F93AE
:101D30009F930E94F00EBF91AF91A29F800D911DC5
:101D4000A39F900DB29F900D11240895991B79E0E7
:101D500004C0991F961708F0961B881F7A95C9F73B
:101D600080950895A1E21A2EAA1BBB1BFD010DC090
:101D7000AA1FBB1FEE1FFF1FA217B307E407F5073B
:101D800020F0A21BB30BE40BF50B661F771F881F17
:101D9000991F1A9469F760957095809590959B01AD
:101DA000AC01BD01CF010895052E97FB16F40094F8
:101DB00007D057FD0DD00E94B20E07FC09D07EF46B
:101DC00090958095709561957F4F8F4F9F4F0895A7
:101DD00050954095309521953F4F4F4F5F4F089557
:101DE0000E94010FA59F900DB49F900DA49F800DA0
:101DF000911D11240895EE0FFF1F0590F491E02D21
:101E00000994A29FB001B39FC001A39F01D0B29FCC
:101E1000700D811D1124911D08950F931F93CF9371
:101E2000DF938230910510F482E090E0E091890226
:101E3000F0918A0220E030E0C0E0D0E023C0408191
:101E4000518148175907A8F04817590761F4828152
:101E50009381209719F09B838A832EC090938A02E6
:101E60008093890229C02115310529F042175307B3
:101E700010F0A90102C0BE01DF0102811381EF0150
:101E80009A01F8013097D9F62115310509F1281B7F
:101E9000390B2430310590F412968D919C91139753
:101EA0006115710521F0FB019383828304C0909337
:101EB0008A0280938902FD01329644C0FD01E20F3F
:101EC000F31F81939193225031092D933C933AC093
:101ED0002091870230918802232B41F42091020146
:101EE00030910301309388022093870220910001F2
:101EF000309101012115310541F42DB73EB74091D4
:101F0000040150910501241B350BE0918702F091EB
:101F10008802E217F307A0F42E1B3F0B281739079E
:101F200078F0AC014E5F5F4F2417350748F04E0F35
:101F30005F1F50938802409387028193919302C060
:101F4000E0E0F0E0CF01DF91CF911F910F91089574
:101F5000EF92FF920F931F93CF93DF93009709F4B3
:101F60008EC0DC01129713961C921E921297E0907D
:101F70008902F0908A02E114F10489F42D913C91D8
:101F80001197280F391F809187029091880282173C
:101F9000930789F5B0938802A093870270C0E70188
:101FA00020E030E001C0EA01CA17DB0738F44A81BB
:101FB0005B819E0141155105B1F722C0AC01425031
:101FC0005109FA01D383C28300811181BC01600FE2
:101FD000711F6C177D0761F468817981600F711F33
:101FE0006E5F7F4F718360836A817B8173836283BD
:101FF0002115310529F4B0938A02A09389023FC0CC
:10200000F901B383A283E90149915991C40FD51F06
:10201000AC17BD0771F4DC019E918E91840F951F62
:1020200002969183808312968D919C91139793834E
:102030008283A0E0B0E002C0D7017C01F701828179
:1020400093810097C9F7C701029620813181820FE1
:10205000931F20918702309188022817390779F45D
:10206000109729F410928A021092890204C01396E4
:102070001C921E921297F0928802E0928702CDB7CE
:10208000DEB7E6E00C947911A0E0B0E0EAE4F0E11C
:102090000C945711EC01009729F4CB010E940D0F0D
:1020A000EC01B4C0DC01A60FB71FFC013297AE17DC
:1020B000BF0718F4C0E0D0E0A9C000811181061765
:1020C0001707B0F00530110508F4A0C0C801049747
:1020D0008617970708F49AC002501109061B170BC0
:1020E0000D931D9371836083CD010E94A80F8EC054
:1020F0006B01C01AD10A7C01E00EF11EE091890249
:10210000F0918A0220E030E080E090E048C0EE15D7
:10211000FF05D1F580809180540142E0A40EB11CEE
:10212000AC14BD0488F17401EC18FD08670122E0CD
:10213000C20ED11C9E012250310945E0C416D104C3
:1021400078F04281538113965C934E9312971196C7
:10215000FC92EE92F901718360833A2F2B2F09C014
:102160000E5F1F4F080D191DD9010D931C9332816D
:102170002381009721F0FC013283238347C03093F1
:10218000890220938A0242C08081918128173907F1
:1021900008F49C0152814381CF01E52FF42F309741
:1021A00009F0B5CF80918702909188028E159F0526
:1021B000F1F426173707D8F48091000190910101BE
:1021C000009741F48DB79EB720910401309105012D
:1021D000821B930BA817B90708F06CCFB093880245
:1021E000A0938702FE013297718360830FC0CB01F9
:1021F0000E940D0F7C01009709F45CCFA801BE017D
:102200000E942A11CE010E94A80FE701CE01CDB78E
:10221000DEB7ECE00C947311FC0188279927E89451
:1022200021912032E9F3293010F02E30C8F32B32FF
:1022300041F02D3239F4689404C00E944911820F94
:10224000911D219120532A30C0F31EF49095819561
:102250009F4F0895FB01DC0102C001900D92415097
:102260005040D8F70895FB01DC0101900D92002049
:10227000E1F70895FB01DC014150504048F0019026
:102280000D920020C9F701C01D9241505040E0F767
:1022900008957AE0979F902D879F802D910D1124AE
:1022A00008952F923F924F925F926F927F928F92FA
:1022B0009F92AF92BF92CF92DF92EF92FF920F93D5
:1022C0001F93CF93DF93CDB7DEB7CA1BDB0B0FB6DF
:1022D000F894DEBF0FBECDBF09942A88398848889C
:1022E0005F846E847D848C849B84AA84B984C88432
:1022F000DF80EE80FD800C811B81AA81B981CE0F29
:10230000D11D0FB6F894DEBF0FBECDBFED0108950D
:1023100010E0C6ECD0E004C0FE010E94FD0E229643
:0A232000C83CD107C9F7F894FFCFBD
:10232A0000008B022000030002007768697465428E
:10233A007574746F6E3A31007768697465427574A2
:10234A00746F6E3A300054686520736572766F2038
:10235A0076616C7565206973206E6F773A20006527
:10236A0072726F723A4661696C656420746F20728A
:10237A006561642066726F6D204448540068756D0B
:10238A0069646974793A0074656D7065726174750F
:10239A0072653A0052656164206661696C000000EA
:1023AA000000AF07920A4A0779075D079D072E00CA
:00000001FF
