:100000000C9463000C948B000C948B000C948B006C
:100010000C948B000C948B000C948B000C948B0034
:100020000C948B000C948B000C948B000C948B0024
:100030000C948B000C948B000C948B000C948B0014
:100040000C94CB030C948B000C9458050C949405E1
:100050000C948B000C948B000C948B000C948B00F4
:100060000C948B000C948B00000000070002010030
:100070000003040600000000000000000102040864
:100080001020408001020408102001020408102002
:10009000040404040404040402020202020203032E
:1000A00003030303000000002300260029000000D2
:1000B0000000250028002B0000000000240027007D
:1000C0002A0052014F0611241FBECFEFD8E0DEBF39
:1000D000CDBF11E0A0E0B1E0E0E8F5E102C005909D
:1000E0000D92A237B107D9F712E0A2E7B1E001C043
:1000F0001D92A633B107E1F710E0C6ECD0E004C0D2
:100100002297FE010E94BA0AC23CD107C9F70E9499
:100110009F060C94BE0A0C94000060E080910201DE
:100120000E94330361E0809100010E94330340E8A4
:1001300055E260E070E08FE891E00E94CF0582E731
:1001400091E00C9460018F929F92AF92BF92CF92F8
:10015000DF92EF92FF92809102010E94A2037C0144
:1001600081309105B1F461E0809100010E946B0340
:100170008091840190918501892B01F564E071E003
:100180008FE891E00E940307F0928501E0928401DC
:1001900015C060E0809100010E946B038091840192
:1001A00090918501019751F462E171E08FE891E04F
:1001B0000E94030710928501109284010E94150489
:1001C000C0908001D0908101E0908201F090830185
:1001D0006C197D098E099F09613375478105910569
:1001E00008F457C00E941504609380017093810148
:1001F000809382019093830182E791E00E94220222
:100200004B015C0160E082E791E00E9470026B01AB
:100210007C019B01AC010E94920A811108C0A501DA
:100220009401C501B4010E94920A882371F060E232
:1002300071E08FE891E0FF90EF90DF90CF90BF905A
:10024000AF909F908F900C9403076EE371E08FE85E
:1002500091E00E94E40622E030E0B501A4018FE8BD
:1002600091E00E94670868E471E08FE891E00E94E5
:10027000E40622E030E0B701A6018FE891E0FF90AC
:10028000EF90DF90CF90BF90AF909F908F900C94A5
:100290006708FF90EF90DF90CF90BF90AF909F9056
:1002A0008F90089526E04BE06EE082E791E00C9499
:1002B0005901FC0166834783208781E08587089583
:1002C000CF93DF93EC0160E08E810E94330361E005
:1002D0008E810E946B0319861A861B861C86DF910D
:1002E000CF910895DF92EF92FF920F931F93CF93D8
:1002F000DF93EC0161E08E810E946B036AEF70E096
:1003000080E090E00E9451040E94150409851A853E
:100310002B853C85601771078207930720F41986A7
:100320001A861B861C862D85211111C009851A8508
:100330002B853C85DC01CB01801B910BA20BB30B01
:10034000803D9740A105B10510F481E073C01D8682
:100350000E94150469877A878B879C871C821B8281
:100360001A821982188261E08E810E94330360E054
:100370008E810E946B0364E170E080E090E00E9457
:100380005104F89461E08E810E946B0388E290E052
:100390000E94770460E08E810E943303F12CD12CFF
:1003A00081E009C0E39481E090E00E9477048FEF40
:1003B000E81204C009C0E12C082F10E08E810E94D1
:1003C000A2038017910771F38E810E94A2039FEF11
:1003D000E916C9F023E02F1590F4F0FC10C09D2D14
:1003E000969596959695FE01E90FF11D9081990FCE
:1003F000908328852E1510F491609083D394F39404
:1004000095E5F912D8CF789427E22D1590F42C8138
:1004100030E04881898190E0840F911D4A81840FEA
:10042000911D4B81840F911D99272817390709F4D5
:100430008CCF80E0DF91CF911F910F91FF90EF90D3
:10044000DF900895EF92FF920F931F93CF93DF9366
:10045000EC010E947201882391F18F818B3029F089
:1004600070F18551823058F507C0688170E080E0F6
:1004700090E00E947D092DC0688170E080E090E0EE
:100480000E947D0920E030E040E853E40E942F0AFA
:100490007B018C01698170E080E090E00E947F091F
:1004A0009B01AC016E2D7F2D802F912F0E947C0827
:1004B00020E030E040E251E40E94E4080AC065E533
:1004C00071E08FE891E00E94E40660E070E080EC6B
:1004D0009FE7DF91CF911F910F91FF90EF900895CB
:1004E000CF92DF92EF92FF920F931F93CF93DF9300
:1004F0008C01C62F0E947201882309F477C0F8018D
:1005000087818B3039F008F471C08551823008F052
:100510006DC01DC0F801628170E080E090E00E9433
:100520007D09B62FA72FF82FE92F462F572F682FB9
:10053000792FCB01BA01CC2309F462C020E030E06E
:1005400040E151E46B2F7A2F8F2F9E2F37C0F80197
:10055000D2816D2F6F7770E080E090E00E947F097C
:1005600020E030E040E853E40E942F0A6B017C0158
:10057000F801638170E080E090E00E947F099B01B8
:10058000AC016C2D7D2D8E2D9F2D0E947C0820E0CE
:1005900030E040E251E40E94E408472F382F292F31
:1005A000862F942FA32FB22FBC01CD01D7FD9058D9
:1005B000CC2331F120E030E040E151E40E942F0AE9
:1005C00020E030E040EA50E40E94E40820E030E01F
:1005D00040E052E40E947C08472F382F292F862FB5
:1005E000942FA32FB22FBC01CD010AC065E571E0A5
:1005F0008FE891E00E94E40660E070E080EC9FE705
:10060000DF91CF911F910F91FF90EF90DF90CF90EE
:100610000895833069F028F48130A1F0823011F51B
:1006200014C08630B1F08730C1F08430D9F404C0F2
:10063000809180008F7703C0809180008F7D8093B0
:100640008000089584B58F7702C084B58F7D84BD06
:1006500008958091B0008F7703C08091B0008F7DA6
:100660008093B0000895CF93DF9390E0FC01E458AD
:10067000FF4F4491FC01E057FF4F8491882341F1E3
:1006800090E0880F991FFC01E854FF4F25913491A9
:10069000D90182559F4FFC0185919491C82FD92F84
:1006A0009FB7F8948C91611106C0409584238C9378
:1006B0008881842308C0623041F4242F209582234E
:1006C0008C938881842B888302C0842B8C939FBF5A
:1006D000DF91CF9108950F931F93CF93DF931F92D4
:1006E000CDB7DEB7282F30E0F901E859FF4F8491EC
:1006F000F901E458FF4F1491F901E057FF4F0491BD
:100700000023D1F0882321F069830E9409036981C5
:10071000E02FF0E0EE0FFF1FE255FF4F859194911F
:10072000DC019FB7F8948C91611103C0109581236F
:1007300001C0812B8C939FBF0F90DF91CF911F91B0
:100740000F910895CF93DF93282F30E0F901E859F6
:10075000FF4F8491F901E458FF4FD491F901E0571C
:10076000FF4FC491CC2389F081110E940903EC2F23
:10077000F0E0EE0FFF1FEC55FF4F85919491DC01E7
:100780008C918D2321E030E011F420E030E0C901AC
:10079000DF91CF9108951F920F920FB60F921124FF
:1007A0002F933F938F939F93AF93BF938091860135
:1007B00090918701A0918801B091890130918E01BB
:1007C000232F2D5F2D3720F40196A11DB11D05C0EB
:1007D000232F2A570296A11DB11D20938E018093CD
:1007E000860190938701A0938801B093890180913D
:1007F0008A0190918B01A0918C01B0918D0101969D
:10080000A11DB11D80938A0190938B01A0938C014F
:10081000B0938D01BF91AF919F918F913F912F9197
:100820000F900FBE0F901F9018950F931F938FB7C7
:10083000F8940091860110918701209188013091F0
:1008400089018FBFB801C9011F910F9108950F93BE
:100850001F939FB7F89400918A0110918B0120910A
:100860008C0130918D0186B5A89B06C08F3F21F089
:100870000F5F1F4F2F4F3F4F9FBF322F212F102F42
:100880000027080F111D211D311D42E0000F111F0F
:10089000221F331F4A95D1F7B801C9011F910F914B
:1008A0000895CF92DF92EF92FF92CF93DF936B0187
:1008B0007C010E942704EB010EC00E9427046C1BE0
:1008C0007D0B683E734038F081E0C81AD108E1081A
:1008D000F108C851DC4FC114D104E104F10469F7F7
:1008E000DF91CF91FF90EF90DF90CF900895019727
:1008F00039F0880F991F880F991F02970197F1F718
:100900000895789484B5826084BD84B5816084BD87
:1009100085B5826085BD85B5816085BDEEE6F0E078
:10092000808181608083E1E8F0E0108280818260D4
:100930008083808181608083E0E8F0E08081816055
:100940008083E1EBF0E0808184608083E0EBF0E085
:10095000808181608083EAE7F0E080818460808329
:1009600080818260808380818160808380818068D3
:1009700080831092C1000895FC0184859585FC0157
:10098000E05CFF4F20813181FC01EE5BFF4F8081F5
:100990009181281B390B2F733327C9010895FC015E
:1009A00084859585FC01E05CFF4F40815181FC010D
:1009B000EE5BFF4F208131814217530741F00190D8
:1009C000F081E02DE80FF91F208130E002C02FEF09
:1009D0003FEFC9010895FC0184859585FC01E05C29
:1009E000FF4F40815181FC01EE5BFF4F208131813F
:1009F0004217530781F0A081B181A80FB91F8C91D4
:100A0000208131812F5F3F4F2F7333273183208324
:100A1000282F30E002C02FEF3FEFC9010895FC01FD
:100A200086859785FC01E05CFF4FDC01AE5BBF4F24
:100A3000408151812D913C91119742175307C1F785
:100A40000895CF93DF93FC0186859785DC01A05C38
:100A5000BF4F2D913C9111972F5F3F4F2F7333273D
:100A6000EC01CE5BDF4F4881598124173507D9F35C
:100A70000D90BC91A02DA80FB91F6C93A685B785CA
:100A8000A05CBF4F11963C932E93A689B7892C91F9
:100A900081E090E0058C02C0880F991F0A94E2F76C
:100AA000282B2C9381E090E0DF91CF910895089559
:100AB0001F920F920FB60F9211242F933F934F93D3
:100AC0008F939F93EF93FF934091C60080913202E2
:100AD0009091330201968F739927209134023091BF
:100AE00035028217930759F0E0913202F0913302F8
:100AF000EE50FE4F40839093330280933202FF9179
:100B0000EF919F918F914F913F912F910F900FBE39
:100B10000F901F9018958FE891E00E94BC04892BDC
:100B200011F00C94570508951F920F920FB60F9273
:100B300011242F933F938F939F93EF93FF932091D3
:100B4000EE013091EF018091F0019091F1012817B1
:100B5000390731F48091C1008F7D8093C10014C0AA
:100B6000E091F001F091F101E255FE4F208180917A
:100B7000F0019091F10101968F7399279093F10103
:100B80008093F0012093C600FF91EF919F918F9188
:100B90003F912F910F900FBE0F901F901895CF92FD
:100BA000DF92EF92FF92CF93DF93EC016A017B011A
:100BB000411581EE580761057105F9F0EC89FD8951
:100BC00081E090E00E8C02C0880F991F0A94E2F732
:100BD000808360E079E08DE390E0A70196010E94B8
:100BE000960A215031094109510956954795379583
:100BF0002795211580E1380798F0EC89FD8910824E
:100C000060E874E88EE190E0A70196010E94960AE0
:100C10002150310941095109569547953795279536
:100C2000E889F9893083EA89FB892083EE89FF8985
:100C3000408181E090E09C010A8C02C0220F331FAA
:100C40000A94E2F7422B4083EE89FF8940819C01A0
:100C50000B8C02C0220F331F0A94E2F7422B408311
:100C6000EE89FF8940819C010C8C02C0220F331F4A
:100C70000A94E2F7422B4083EE89FF8920810D8C94
:100C800002C0880F991F0A94E2F78095822380831F
:100C9000DF91CF91FF90EF90DF90CF900895109269
:100CA00092011092910188EE93E0A0E0B0E0809371
:100CB000930190939401A0939501B093960183E6DC
:100CC00091E09093900180938F0182EF91E0909357
:100CD0009C0180939B018EEA91E090939E0180930A
:100CE0009D0185EC90E09093A00180939F0184EC9E
:100CF00090E09093A2018093A10180EC90E090930A
:100D0000A4018093A30181EC90E09093A6018093CD
:100D1000A50186EC90E09093A8018093A70184E060
:100D20008093A90183E08093AA0187E08093AB01BF
:100D300085E08093AC0181E08093AD0108950E942D
:100D400081040E948D00CBE8D5E00E94A30020978B
:100D5000E1F30E948B05F9CFCF92DF92EF92FF92E1
:100D60000F931F93CF93DF936C01EB017A01E60E93
:100D7000F71E00E010E00BC06991D601ED91FC91E7
:100D80000190F081E02DC6010995080F191FCE15BD
:100D9000DF0591F7C801DF91CF911F910F91FF906F
:100DA000EF90DF90CF900895DB010D900020E9F7E0
:100DB000AD0141505109461B570BDC01ED91FC91EF
:100DC0000280F381E02D09940C94D406DC01ED91AE
:100DD000FC910190F081E02D09940F931F93CF9324
:100DE000DF93EC016DE00E94E6068C016AE0CE0123
:100DF0000E94E6069C01200F311FC901DF91CF91AF
:100E00001F910F9108950F931F93CF93DF93EC01E0
:100E10000E94D4068C01CE010E94ED069801280F95
:100E2000391FC901DF91CF911F910F9108954F9202
:100E30005F926F927F929F92AF92BF92CF92DF921A
:100E4000EF92FF920F931F93CF93DF93CDB7DEB74F
:100E5000A1970FB6F894DEBF0FBECDBF5C016A014B
:100E60007B01922E19A281E0821710F08AE0982E61
:100E70008E010F5D1F4F492C512C612C712CC70125
:100E8000B601A30192010E94960A8C2D929E8019B0
:100E90001124015011098A3014F4805D01C0895C6D
:100EA000F801808369017A01C114D104E104F104DD
:100EB00031F7B801C5010E94D406A1960FB6F89487
:100EC000DEBF0FBECDBFDF91CF911F910F91FF907D
:100ED000EF90DF90CF90BF90AF909F907F906F90FA
:100EE0005F904F900895CF92DF92EF92FF920F9311
:100EF0001F93CF93DF93EC016A017B01211531052C
:100F000079F4E881F9810190F081E02D642FDF917F
:100F1000CF911F910F91FF90EF90DF90CF900994A8
:100F20002A30310519F477FD0EC02AE0B701A60179
:100F3000CE01DF91CF911F910F91FF90EF90DF9045
:100F4000CF900C9417076DE20E94E6068C014427AF
:100F50005527BA014C195D096E097F092AE0CE01B7
:100F60000E941707080F191FC801DF91CF911F9129
:100F70000F91FF90EF90DF90CF9008957F928F9226
:100F80009F92AF92BF92CF92DF92EF92FF920F9318
:100F90001F93CF93DF938C014A015B01F22E20E077
:100FA00030E0A901C501B4010E94E00887FF0AC032
:100FB0006DE2C8010E94E606EC01B7FAB094B7F8FA
:100FC000B09402C0C0E0D0E0E12C60E070E080E0CE
:100FD0009FE307C020E030E040E251E40E94E408D3
:100FE000E394EF10F7CF262F372F482F592FC50145
:100FF000B4010E947C08762E872E982EA92E0E947E
:101000005109B62EC72ED82EE92E0E947D099B01CC
:10101000AC01672D782D892D9A2D0E947B08A62E74
:10102000972E882E792E2AE04B2D5C2D6D2D7E2D4E
:10103000C8010E941707C80FD91FFF20B9F16FE63A
:1010400071E0C8010E94D406C80FD91F2FC020E04C
:1010500030E040E251E46A2D792D882D972D0E94D1
:101060002F0A762EC72ED82EE92E0E944C094B014E
:10107000AA2497FCA094BA2C2AE030E0B501A40180
:10108000C8010E947307C80FD91FC501B4010E948F
:101090007F099B01AC01672D7C2D8D2D9E2D0E941B
:1010A0007B08A62E972E882E792EFA94F110CFCF9A
:1010B000CE01DF91CF911F910F91FF90EF90DF90C4
:1010C000CF90BF90AF909F908F907F9008950F9397
:1010D0001F93CF93DF93EC010E94BE078C01CE01DA
:1010E0000E94ED069801280F391FC901DF91CF91A9
:1010F0001F910F9108955058BB27AA270ED075C194
:1011000066D130F06BD120F031F49F3F11F41EF422
:101110005BC10EF4E095E7FB51C1E92F77D180F375
:10112000BA17620773078407950718F071F49EF5E4
:101130008FC10EF4E0950B2EBA2FA02D0B01B90133
:1011400090010C01CA01A0011124FF27591B99F03D
:10115000593F50F4503E68F11A16F040A22F232F49
:10116000342F4427585FF3CF469537952795A79599
:10117000F0405395C9F77EF41F16BA0B620B730B40
:10118000840BBAF09150A1F0FF0FBB1F661F771FB1
:10119000881FC2F70EC0BA0F621F731F841F48F466
:1011A000879577956795B795F7959E3F08F0B3CFEC
:1011B0009395880F08F09927EE0F979587950895D6
:1011C000D9D008F481E008950CD00FC107D140F0C8
:1011D000FED030F021F45F3F19F0F0C0511139C159
:1011E000F3C014D198F39923C9F35523B1F3951B98
:1011F000550BBB27AA2762177307840738F09F5F38
:101200005F4F220F331F441FAA1FA9F333D00E2EA6
:101210003AF0E0E830D091505040E695001CCAF713
:1012200029D0FE2F27D0660F771F881FBB1F2617D8
:1012300037074807AB07B0E809F0BB0B802DBF01AB
:10124000FF2793585F4F2AF09E3F510568F0B6C0C4
:1012500000C15F3FECF3983EDCF386957795679588
:10126000B795F7959F5FC9F7880F911D969587955C
:1012700097F90895E1E0660F771F881FBB1F62177B
:1012800073078407BA0720F0621B730B840BBA0B39
:10129000EE1F88F7E095089504D06894B111D9C085
:1012A0000895BCD088F09F5790F0B92F9927B75177
:1012B000A0F0D1F0660F771F881F991F1AF0BA951A
:1012C000C9F712C0B13081F0C3D0B1E00895C0C0F9
:1012D000672F782F8827B85F39F0B93FCCF3869510
:1012E00077956795B395D9F73EF49095809570956D
:1012F00061957F4F8F4F9F4F0895E89409C097FBEA
:101300003EF490958095709561957F4F8F4F9F4FDC
:101310009923A9F0F92F96E9BB279395F695879520
:1013200077956795B795F111F8CFFAF4BB0F11F4E3
:1013300060FF1BC06F5F7F4F8F4F9F4F16C088238A
:1013400011F096E911C0772321F09EE8872F762FC0
:1013500005C0662371F096E8862F70E060E02AF001
:101360009A95660F771F881FDAF7880F96958795ED
:1013700097F90895990F0008550FAA0BE0E8FEEFC2
:1013800016161706E807F907C0F012161306E40749
:10139000F50798F0621B730B840B950B39F40A2642
:1013A00061F0232B242B252B21F408950A2609F420
:1013B000A140A6958FEF811D811D089597F99F6724
:1013C00080E870E060E008959FEF80EC08950024CD
:1013D0000A941616170618060906089500240A949A
:1013E00012161306140605060895092E0394000C20
:1013F00011F4882352F0BB0F40F4BF2B11F460FFAF
:1014000004C06F5F7F4F8F4F9F4F089557FD9058D7
:10141000440F551F59F05F3F71F04795880F97FBB8
:10142000991F61F09F3F79F0879508951216130672
:101430001406551FF2CF4695F1DF08C016161706A1
:101440001806991FF1CF86957105610508940895D6
:10145000E894BB2766277727CB0197F908950BD02F
:10146000C4CFB5DF28F0BADF18F0952309F0A6CF76
:10147000ABCF1124EECFCADFA0F3959FD1F3950F28
:1014800050E0551F629FF001729FBB27F00DB11D08
:10149000639FAA27F00DB11DAA1F649F6627B00D98
:1014A000A11D661F829F2227B00DA11D621F739F81
:1014B000B00DA11D621F839FA00D611D221F749F8F
:1014C0003327A00D611D231F849F600D211D822FD6
:1014D000762F6A2F11249F5750408AF0E1F088231D
:1014E0004AF0EE0FFF1FBB1F661F771F881F91502A
:1014F0005040A9F79E3F510570F060CFAACF5F3FE3
:10150000ECF3983EDCF3869577956795B795F7955C
:10151000E7959F5FC1F7FE2B880F911D96958795E4
:1015200097F9089527DF880B990B0895A1E21A2EE9
:10153000AA1BBB1BFD010DC0AA1FBB1FEE1FFF1F77
:10154000A217B307E407F50720F0A21BB30BE40BC7
:10155000F50B661F771F881F991F1A9469F760950E
:101560007095809590959B01AC01BD01CF010895C8
:10157000EE0FFF1F0590F491E02D0994F894FFCF32
:10158000030002007768697465427574746F6E3A7F
:1015900031007768697465427574746F6E3A300013
:1015A0006572726F723A4661696C656420746F206F
:1015B000726561642066726F6D20444854006875DE
:1015C0006D69646974793A0074656D7065726174EF
:1015D0007572653A0052656164206661696C00004D
:1015E0000000002105AC06BC04EB04CF040F052E5F
:0215F0000000F9
:00000001FF
