:100000000C945F000C9487000C9487000C9487007C
:100010000C9487000C9487000C9487000C94870044
:100020000C9487000C9487000C9487000C94870034
:100030000C9487000C9487000C9487000C94870024
:100040000C942F040C9487000C941D060C945906F4
:100050000C9487000C9487000C9487000C94870004
:100060000C9487000C948700000000070002010038
:100070000003040600000000000000000102040864
:100080001020408001020408102001020408102002
:10009000040404040404040402020202020203032E
:1000A0000303030300000000250028002B000000CC
:1000B0000000240027002A00B3011407CB011124FB
:1000C0001FBECFEFD8E0DEBFCDBF11E0A0E0B1E0B2
:1000D000E6EDF8E102C005900D92A038B107D9F71E
:1000E00012E0A0E8B1E001C01D92A335B107E1F72D
:1000F00010E0CCEBD0E004C02297FE010E94DF09A3
:10010000C83BD107C9F70E9464070C945E0C0C949D
:10011000000020E042E060E18AE891E00E94BC0239
:100120008AE891E00E94B5026EE071E08AE891E011
:100130000E94BA0884EF91E090938101809380013E
:1001400040E855E260E070E088EA91E00E949406A1
:1001500061E089E00E94C00361E08AE00E94C00380
:1001600061E08BE00E94C00361E08DE00C94C0036D
:10017000EF92FF920F931F93CF93DF93CDB7DEB72C
:10018000EDB6FEB640918701509188014F5F5F4FF9
:100190008DB79EB7841B950B0FB6F8949EBF0FBE0C
:1001A0008DBF0DB71EB70F5F1F4F20E030E0B801C5
:1001B00083E891E00E945808C8010E94E20B0FB644
:1001C000F894FEBE0FBEEDBEDF91CF911F910F914F
:1001D000FF90EF9008950F931F93CF93DF938F3F7E
:1001E000910509F044F46FEF70E0681B790BEC01A6
:1001F00000E010E015C0811522E092074CF4CFEF2B
:10020000D1E0C81BD90B8C011A9560E070E008C0E2
:10021000BC0172500FEF12E0081B190BC0E0D0E0D8
:1002200089E00E942005B8018BE00E942005BE01F4
:100230008AE0DF91CF911F910F910C942005CF920E
:10024000DF92EF92FF92CF93DF9341E060E08AE884
:1002500091E00E9488026DE171E08AE891E00E94DD
:10026000BA0841E060E08AE891E00E9488020E94BA
:10027000790428EE33E040E050E00E94BB096901B8
:100280007A012AE030E0B701A6018AE891E00E94F5
:100290004909D1E029C064E271E083E891E00E945D
:1002A000FF0765E271E006C0CD3749F4D0938201C3
:1002B00062E371E088EA91E00E94D90815C06C2FD2
:1002C00083E891E00E9445086DE371E088EA91E0DF
:1002D0000E94BA086C2F772767FD709540E150E0C7
:1002E00088EA91E00E94A10988EA91E00E948105D4
:1002F00020918201892BA1F1222349F131C00E9472
:10030000B8007C01909381018093800160E571E0E9
:1003100088EA91E00E94BA084AE050E0B70188EA12
:1003200091E00E94A1091092820180918001909138
:1003300081010E94EB0062E370E080E090E0DF91D9
:10034000CF91FF90EF90DF90CF900C94B50488EAA6
:1003500091E00E94B005C82F8B3709F0A5CF9BCF45
:10036000213019F7CCCFCF92EF920F9382E0C82EB5
:1003700093E0E92E04E025E046E06CE08AE891E0B5
:100380000E94700364E271E083E891E00F91EF90C6
:10039000CF900C94E20783E891E00C947107CF931F
:1003A000DF93EC0160E08E810E94F80381E090E031
:1003B0000E94DB0461E08E810E94F80381E090E0FE
:1003C0000E94DB0460E08E810E94F80384E690E0E6
:1003D000DF91CF910C94DB04CF92DF92EF92FF92EA
:1003E0000F931F93CF93DF937C01C0E0D0E0C62E24
:1003F000D12C87010C0F1D1F61E0F80187810E943D
:10040000C003B6010C2E02C0759567950A94E2F7F9
:1004100061707727F80187810E94F8032196C43024
:10042000D10539F7C701DF91CF911F910F91FF904F
:10043000EF90DF90CF900C94CF01CF92DF92EF92AC
:10044000FF920F931F93CF93DF937C01C0E0D0E026
:10045000C62ED12C87010C0F1D1F61E0F80187818A
:100460000E94C003B6010C2E02C0759567950A94D0
:10047000E2F761707727F80187810E94F8032196DF
:10048000C830D10539F7C701DF91CF911F910F9186
:10049000FF90EF90DF90CF900C94CF011F93CF93FC
:1004A000DF93EC01162F642F8C810E94F8038D815D
:1004B0008F3F19F060E00E94F8038F85612F84FF61
:1004C00006C0CE01DF91CF911F910C941D0270E008
:1004D00084E0759567958A95E1F7CE010E94EC015D
:1004E000612FCE01DF91CF911F910C94EC0141E07F
:1004F0000E944E0281E090E0089540E00C944E028C
:10050000FC016089262F2460208B6C600C947D0296
:10051000CF93DF93CDB7DEB728970FB6F894DEBF41
:100520000FBECDBF28E0E6E0F1E0DE0111960190BC
:100530000D922A95E1F7FC012389421710F0422F12
:100540004150FE013196E40FF11DE40FF11D2081B1
:10055000260F2068622F28960FB6F894DEBF0FBED4
:10056000CDBFDF91CF910C947D0261E00E947D02AE
:1005700080ED97E00C94DB04CF93DF93EC014230E5
:1005800018F08F8588608F874B8B1C8A222329F077
:10059000413019F48F8584608F8780E593EC0E9449
:1005A000DB0460E08C810E94F80360E08E810E9491
:1005B000F8038D818F3F19F060E00E94F8036F858A
:1005C00064FD1DC063E0CE010E94EC0184E991E16D
:1005D0000E94DB0463E0CE010E94EC0184E991E11A
:1005E0000E94DB0463E0CE010E94EC0186E990E00A
:1005F0000E94DB0462E0CE010E94EC0116C0606242
:10060000CE010E947D0284E991E10E94DB046F85A6
:100610006062CE010E947D0286E990E00E94DB04C8
:100620006F856062CE010E947D026F856062CE019F
:100630000E947D0284E0888BCE010E948002CE0160
:100640000E94B50282E0898B66E0CE01DF91CF91F6
:100650000C947D026F927F928F92AF92CF92EF9225
:100660000F931F93CF93DF93CDB7DEB73C01162FC7
:10067000842F5D854E853F859889F301848325838A
:100680000683E782C086A1868286538744873587A2
:10069000968761E00E94C003F30185818F3F19F0C6
:1006A00061E00E94C00361E0F30186810E94C00303
:1006B000112319F0F301178603C080E1F301878746
:1006C00020E041E060E1C301DF91CF911F910F91E4
:1006D000EF90CF90AF908F907F906F900C94BC0272
:1006E0008F92AF92CF92EF920F93DC0113961C92F0
:1006F0001E921297EBE6F1E0ED93FC931F921F928E
:100700001F921F928C2CAE2CC02EE22E042F2FEFA6
:10071000462F61E00E942A030F900F900F900F90D8
:100720000F91EF90CF90AF908F900895833069F044
:1007300028F48130A1F0823011F514C08630B1F078
:100740008730C1F08430D9F404C0809180008F7765
:1007500003C0809180008F7D80938000089584B5D0
:100760008F7702C084B58F7D84BD08958091B000DD
:100770008F7703C08091B0008F7D8093B000089583
:10078000CF93DF9390E0FC01E458FF4F4491FC01CC
:10079000E057FF4F8491882341F190E0880F991F23
:1007A000FC01E255FF4F25913491D9018C559F4FA3
:1007B000FC0185919491C82FD92F9FB7F8948C9103
:1007C000611106C0409584238C938881842308C0DE
:1007D000623041F4242F209582238C938881842BCE
:1007E000888302C0842B8C939FBFDF91CF910895A3
:1007F0000F931F93CF93DF931F92CDB7DEB7282FB0
:1008000030E0F901E859FF4F8491F901E458FF4FB6
:100810001491F901E057FF4F04910023D1F0882390
:1008200021F069830E9496036981E02FF0E0EE0FCA
:10083000FF1FEC55FF4F85919491DC019FB7F89411
:100840008C91611103C01095812301C0812B8C9381
:100850009FBF0F90DF91CF911F910F9108951F922D
:100860000F920FB60F9211242F933F938F939F9364
:10087000AF93BF9380919F019091A001A091A1019E
:10088000B091A2013091A701232F2D5F2D3720F4C5
:100890000196A11DB11D05C0232F2A570296A11D47
:1008A000B11D2093A70180939F019093A001A09375
:1008B000A101B093A2018091A3019091A401A09104
:1008C000A501B091A6010196A11DB11D8093A301C0
:1008D0009093A401A093A501B093A601BF91AF91FD
:1008E0009F918F913F912F910F900FBE0F901F906E
:1008F00018950F931F938FB7F89400919F01109153
:10090000A0012091A1013091A2018FBFB801C901BE
:100910001F910F9108950F931F939FB7F894009123
:10092000A3011091A4012091A5013091A60186B5E3
:10093000A89B06C08F3F21F00F5F1F4F2F4F3F4FE7
:100940009FBF322F212F102F0027080F111D211DAF
:10095000311D42E0000F111F221F331F4A95D1F7AE
:10096000B801C9011F910F910895CF92DF92EF92C4
:10097000FF92CF93DF936B017C010E948B04EB010C
:100980000EC00E948B046C1B7D0B683E734038F0D8
:1009900081E0C81AD108E108F108C851DC4FC11440
:1009A000D104E104F10469F7DF91CF91FF90EF905A
:1009B000DF90CF900895019739F0880F991F880F25
:1009C000991F02970197F1F70895789484B5826092
:1009D00084BD84B5816084BD85B5826085BD85B5E3
:1009E000816085BDEEE6F0E0808181608083E1E892
:1009F000F0E01082808182608083808181608083CA
:100A0000E0E8F0E0808181608083E1EBF0E08081CC
:100A100084608083E0EBF0E0808181608083EAE79E
:100A2000F0E0808184608083808182608083808127
:100A3000816080838081806880831092C1000895E6
:100A40001F93CF93DF93182FEB0161E00E94C00347
:100A5000209711F460E004C0CF3FD10539F461E084
:100A6000812FDF91CF911F910C94F803E12FF0E0DB
:100A7000E859FF4FE491E330B9F028F4E13051F048
:100A8000E230B1F50CC0E63019F1E73049F1E4305D
:100A900079F514C084B5806884BDC7BD2EC084B507
:100AA000806284BDC8BD29C0809180008068809329
:100AB0008000D0938900C09388001FC0809180007F
:100AC000806280938000D0938B00C0938A0015C011
:100AD0008091B00080688093B000C093B3000DC0D7
:100AE0008091B00080628093B000C093B40005C0D4
:100AF000C038D1050CF0B3CFADCFDF91CF911F91AE
:100B00000895FC0184859585FC01E05CFF4F208100
:100B10003181FC01EE5BFF4F80819181281B390BF5
:100B20002F733327C9010895FC0184859585FC0145
:100B3000E05CFF4F40815181FC01EE5BFF4F208163
:100B400031814217530741F00190F081E02DE80F09
:100B5000F91F208130E002C02FEF3FEFC901089557
:100B6000FC0184859585FC01E05CFF4F408151814B
:100B7000FC01EE5BFF4F208131814217530781F06A
:100B8000A081B181A80FB91F8C91208131812F5F85
:100B90003F4F2F73332731832083282F30E002C04B
:100BA0002FEF3FEFC9010895FC0186859785FC0171
:100BB000E05CFF4FDC01AE5BBF4F408151812D9166
:100BC0003C91119742175307C1F70895CF93DF93D4
:100BD000FC0186859785DC01A05CBF4F2D913C917F
:100BE00011972F5F3F4F2F733327EC01CE5BDF4F01
:100BF0004881598124173507D9F30D90BC91A02D58
:100C0000A80FB91F6C93A685B785A05CBF4F11963E
:100C10003C932E93A689B7892C9181E090E0058CB6
:100C200002C0880F991F0A94E2F7282B2C9381E0C9
:100C300090E0DF91CF91089508951F920F920FB623
:100C40000F9211242F933F934F938F939F93EF9382
:100C5000FF934091C60080914B0290914C02019607
:100C60008F73992720914D0230914E02821793077E
:100C700059F0E0914B02F0914C02E55FFD4F40834B
:100C800090934C0280934B02FF91EF919F918F9133
:100C90004F913F912F910F900FBE0F901F9018957D
:100CA00088EA91E00E948105892B11F00C941C06C2
:100CB00008951F920F920FB60F9211242F933F9316
:100CC0008F939F93EF93FF93209107023091080237
:100CD0008091090290910A022817390731F4809116
:100CE000C1008F7D8093C10014C0E0910902F09192
:100CF0000A02E953FE4F20818091090290910A0275
:100D000001968F73992790930A028093090220938A
:100D1000C600FF91EF919F918F913F912F910F907E
:100D20000FBE0F901F901895CF92DF92EF92FF9217
:100D3000CF93DF93EC016A017B01411581EE5807E7
:100D400061057105F9F0EC89FD8981E090E00E8C78
:100D500002C0880F991F0A94E2F7808360E079E06F
:100D60008DE390E0A70196010E94BB092150310953
:100D7000410951095695479537952795211580E1E9
:100D8000380798F0EC89FD89108260E874E88EE1FC
:100D900090E0A70196010E94BB0921503109410949
:100DA00051095695479537952795E889F9893083F4
:100DB000EA89FB892083EE89FF89408181E090E008
:100DC0009C010A8C02C0220F331F0A94E2F7422BC7
:100DD0004083EE89FF8940819C010B8C02C0220F69
:100DE000331F0A94E2F7422B4083EE89FF8940814A
:100DF0009C010C8C02C0220F331F0A94E2F7422B95
:100E00004083EE89FF8920810D8C02C0880F991FD5
:100E10000A94E2F7809582238083DF91CF91FF903F
:100E2000EF90DF90CF9008951092AB011092AA013D
:100E300088EE93E0A0E0B0E08093AC019093AD0128
:100E4000A093AE01B093AF0183E791E09093A90125
:100E50008093A8018BE092E09093B5018093B40158
:100E600087EC91E09093B7018093B60185EC90E018
:100E70009093B9018093B80184EC90E09093BB010A
:100E80008093BA0180EC90E09093BD018093BC0107
:100E900081EC90E09093BF018093BE0186EC90E0DE
:100EA0009093C1018093C00184E08093C20183E0EC
:100EB0008093C30187E08093C40185E08093C501DE
:100EC00081E08093C60108950E94E5040E94890094
:100ED000C0E5D6E00E941F012097E1F30E94500672
:100EE000F9CFFC01808191810C947E0ACF93DF932E
:100EF000EC0188819981009711F00E947E0A198285
:100F000018821D821C821B821A82DF91CF91089564
:100F10000F931F93CF93DF93EC018B016F5F7F4F94
:100F2000888199810E941A0B009731F099838883F8
:100F30001B830A8381E001C080E0DF91CF911F9184
:100F40000F910895CF93DF93EC0188819981892BCC
:100F500031F08A819B818617970708F00CC0CE017B
:100F60000E948807882349F08C819D81892B19F480
:100F7000E881F981108281E001C080E0DF91CF91AA
:100F80000895EF92FF920F931F93CF93DF93EC019D
:100F90007B018A01BA010E94A207811104C0CE011F
:100FA0000E94760707C01D830C83B7018881998151
:100FB0000E94090CCE01DF91CF911F910F91FF90FC
:100FC000EF900895DC0111961C921E9213961C92CC
:100FD0001E92129715961C921E92149716961C92AA
:100FE0006115710559F0DB010D900020E9F7AD01A5
:100FF00041505109461B570B0C94C1070895CF93DC
:10100000DF93D82FC92F6115710561F0DB010D90B9
:101010000020E9F7AD0141505109461B570B0E94D2
:10102000C10702C00E9476078D2F9C2FDF91CF91C0
:101030000895EF92FF920F931F93CF93DF93EC01EC
:101040007B010C811D816115710511F480E016C0D2
:101050004115510591F0040F151FB8010E94A20718
:101060008823A1F3288139818C819D81B701820F6A
:10107000931F0E94090C1D830C8381E0DF91CF91A7
:101080001F910F91FF90EF900895CF93DF9300D0C1
:10109000CDB7DEB769831A8241E050E0BE016F5FD1
:1010A0007F4F0E9419080F900F90DF91CF91089504
:1010B0000F931F93CF93DF93EB0141155105E9F097
:1010C0002097D9F0FC01048115812017310708F021
:1010D00013C041505109021B130B4017510708F46C
:1010E0008A01FC0160817181620F731FA801CE012A
:1010F0000E94100CC00FD11F1882DF91CF911F9159
:101100000F910895CF92DF92EF92FF920F931F936A
:10111000CF93DF936C01EB017A01E60EF71E00E03E
:1011200010E00BC06991D601ED91FC910190F08126
:10113000E02DC6010995080F191FCE15DF0591F79F
:10114000C801DF91CF911F910F91FF90EF90DF9039
:10115000CF900895DB010D900020E9F7AD014150DB
:101160005109461B570BDC01ED91FC910280F38184
:10117000E02D09940C94AA08DC01ED91FC910190FA
:10118000F081E02D09940F931F93CF93DF93EC012F
:101190006DE00E94BC088C016AE0CE010E94BC0890
:1011A0009C01200F311FC901DF91CF911F910F9139
:1011B00008950F931F93CF93DF93EC010E94AA0829
:1011C0008C01CE010E94C3089801280F391FC90164
:1011D000DF91CF911F910F9108954F925F926F927F
:1011E0007F929F92AF92BF92CF92DF92EF92FF9247
:1011F0000F931F93CF93DF93CDB7DEB7A1970FB6B1
:10120000F894DEBF0FBECDBF5C016A017B01922E58
:1012100019A281E0821710F08AE0982E8E010F5DEE
:101220001F4F492C512C612C712CC701B601A30111
:1012300092010E94BB098C2D929E801911240150AD
:1012400011098A3014F4805D01C0895CF801808343
:1012500069017A01C114D104E104F10431F7B80144
:10126000C5010E94AA08A1960FB6F894DEBF0FBE72
:10127000CDBFDF91CF911F910F91FF90EF90DF9045
:10128000CF90BF90AF909F907F906F905F904F9066
:1012900008952115310541F4DC01ED91FC91019097
:1012A000F081E02D642F09940C94ED08CF92DF9229
:1012B000EF92FF920F931F93CF93DF93EC016A019C
:1012C0007B012115310579F4E881F9810190F081E4
:1012D000E02D642FDF91CF911F910F91FF90EF9040
:1012E000DF90CF9009942A30310519F477FD0EC0B4
:1012F0002AE0B701A601CE01DF91CF911F910F9196
:10130000FF90EF90DF90CF900C94ED086DE20E947B
:10131000BC088C0144275527BA014C195D096E0998
:101320007F092AE0CE010E94ED08080F191FC801AD
:10133000DF91CF911F910F91FF90EF90DF90CF90B1
:1013400008950F931F93CF93DF93EC019A01AB01A4
:10135000662757FD6095762F0E9456098C01CE01B5
:101360000E94C3089801280F391FC901DF91CF914E
:101370001F910F910895A1E21A2EAA1BBB1BFD011C
:101380000DC0AA1FBB1FEE1FFF1FA217B307E40764
:10139000F50720F0A21BB30BE40BF50B661F771FBC
:1013A000881F991F1A9469F760957095809590959C
:1013B0009B01AC01BD01CF010895EE0FFF1F059009
:1013C000F491E02D09940F931F93CF93DF93823014
:1013D000910510F482E090E0E0915102F091520208
:1013E00020E030E0C0E0D0E023C0408151814817C8
:1013F0005907A8F04817590761F482819381209713
:1014000019F09B838A832EC09093520280935102DD
:1014100029C02115310529F04217530710F0A90101
:1014200002C0BE01DF0102811381EF019A01F801C0
:101430003097D9F62115310509F1281B390B2430D5
:10144000310590F412968D919C9113976115710559
:1014500021F0FB019383828304C090935202809316
:101460005102FD01329644C0FD01E20FF31F81934A
:101470009193225031092D933C933AC020914F0211
:1014800030915002232B41F420910201309103014D
:101490003093500220934F022091000130910101BE
:1014A0002115310541F42DB73EB74091040150910B
:1014B0000501241B350BE0914F02F0915002E21719
:1014C000F307A0F42E1B3F0B2817390778F0AC0167
:1014D0004E5F5F4F2417350748F04E0F5F1F509344
:1014E000500240934F028193919302C0E0E0F0E0FC
:1014F000CF01DF91CF911F910F910895EF92FF924D
:101500000F931F93CF93DF93009709F48EC0DC01F4
:10151000129713961C921E921297E0905102F0902F
:101520005202E114F10489F42D913C911197280F96
:10153000391F80914F02909150028217930789F5CD
:10154000B0935002A0934F0270C0E70120E030E05A
:1015500001C0EA01CA17DB0738F44A815B819E01AA
:1015600041155105B1F722C0AC0142505109FA01B1
:10157000D383C28300811181BC01600F711F6C177E
:101580007D0761F468817981600F711F6E5F7F4F05
:10159000718360836A817B81738362832115310546
:1015A00029F4B0935202A09351023FC0F901B383D2
:1015B000A283E90149915991C40FD51FAC17BD070A
:1015C00071F4DC019E918E91840F951F0296918398
:1015D000808312968D919C91139793838283A0E0D0
:1015E000B0E002C0D7017C01F701828193810097AE
:1015F000C9F7C701029620813181820F931F209184
:101600004F02309150022817390779F4109729F4C6
:10161000109252021092510204C013961C921E9214
:101620001297F0925002E0924F02CDB7DEB7E6E09B
:101630000C944F0CA0E0B0E0E0E2FBE00C942D0C29
:10164000EC01009729F4CB010E94E309EC01B4C03E
:10165000DC01A60FB71FFC013297AE17BF0718F4C5
:10166000C0E0D0E0A9C00081118106171707B0F0D3
:101670000530110508F4A0C0C80104978617970724
:1016800008F49AC002501109061B170B0D931D9305
:1016900071836083CD010E947E0A8EC06B01C01AE7
:1016A000D10A7C01E00EF11EE0915102F09152024C
:1016B00020E030E080E090E048C0EE15FF05D1F575
:1016C00080809180540142E0A40EB11CAC14BD0492
:1016D00088F17401EC18FD08670122E0C20ED11CEC
:1016E0009E012250310945E0C416D10478F04281B0
:1016F000538113965C934E9312971196FC92EE923F
:10170000F901718360833A2F2B2F09C00E5F1F4FA1
:10171000080D191DD9010D931C9332812381009767
:1017200021F0FC013283238347C030935102209380
:10173000520242C0808191812817390708F49C0128
:1017400052814381CF01E52FF42F309709F0B5CFB7
:1017500080914F02909150028E159F05F1F426174B
:101760003707D8F48091000190910101009741F46E
:101770008DB79EB72091040130910501821B930B18
:10178000A817B90708F06CCFB0935002A0934F028E
:10179000FE013297718360830FC0CB010E94E30981
:1017A0007C01009709F45CCFA801BE010E94000CE7
:1017B000CE010E947E0AE701CE01CDB7DEB7ECE094
:1017C0000C94490CFC0188279927E8942191203238
:1017D000E9F3293010F02E30C8F32B3241F02D32CE
:1017E00039F4689404C00E941F0C820F911D21914E
:1017F00020532A30C0F31EF4909581959F4F089591
:10180000FB01DC0102C001900D9241505040D8F71D
:101810000895FB01DC0101900D920020E1F708958D
:10182000FB01DC014150504048F001900D92002036
:10183000C9F701C01D9241505040E0F708957AE089
:10184000979F902D879F802D910D112408952F92A1
:101850003F924F925F926F927F928F929F92AF9240
:10186000BF92CF92DF92EF92FF920F931F93CF938D
:10187000DF93CDB7DEB7CA1BDB0B0FB6F894DEBF24
:101880000FBECDBF09942A88398848885F846E844A
:101890007D848C849B84AA84B984C884DF80EE8094
:1018A000FD800C811B81AA81B981CE0FD11D0FB69D
:1018B000F894DEBF0FBECDBFED01089510E0CCEB74
:1018C000D0E004C0FE010E94DF092296CE3BD10782
:0618D000C9F7F894FFCFF8
:1018D600000053022000000040001400540054652C
:1018E60020616D6F20636869717569210020202071
:1018F6002020202000537472696E67207374617211
:101906007400537472696E6720456E6400576520D3
:10191600686176652072656369657665643A20005C
:10192600546865204C454420636F6C6F7220697360
:10193600206E6F773A2000000000007702820800D0
:10194600000000E60582088105B0059405D405006F
:00000001FF
