:100000000C945F000C9487000C9487000C9487007C
:100010000C9487000C9487000C9487000C94870044
:100020000C9487000C9487000C9487000C94870034
:100030000C9487000C9487000C9487000C94870024
:100040000C9479040C9487000C9455060C9491063A
:100050000C9487000C9487000C9487000C94870004
:100060000C9487000C948700000000070002010038
:100070000003040600000000000000000102040864
:100080001020408001020408102001020408102002
:10009000040404040404040402020202020203032E
:1000A0000303030300000000250028002B000000CC
:1000B0000000240027002A00F3014C071702112436
:1000C0001FBECFEFD8E0DEBFCDBF11E0A0E0B1E0B2
:1000D000E2E9F9E102C005900D92AC34B107D9F71D
:1000E00012E0ACE4B1E001C01D92A133B107E1F729
:1000F00010E0CCEBD0E004C02297FE010E943D0A44
:10010000C83BD107C9F70E949C070C94BC0C0C9407
:10011000000083E591E00E94A9078AE591E00E9432
:10012000A90781E691E00C94A90720E042E060E194
:1001300088E691E00E94060388E691E00E94FF02B3
:1001400040E060E088E691E00E94D2026AE571E05A
:1001500088E691E00E94030941E060E088E691E0D2
:100160000E94D20263E571E088E691E00E940309F3
:1001700084EF91E090934D0180934C0140E855E26B
:1001800060E070E086E891E00E94CC0661E089E0E2
:100190000E940A0461E08AE00E940A0461E08BE0A8
:1001A0000E940A0461E08DE00C940A04EF92FF9231
:1001B0000F931F93CF93DF93CDB7DEB7EDB6FEB6A7
:1001C00040916501509166014F5F5F4F8DB79EB7BB
:1001D000841B950B0FB6F8949EBF0FBE8DBF0DB755
:1001E0001EB70F5F1F4F20E030E0B80181E691E0BD
:1001F0000E94A108C8010E94400C0FB6F894FEBEF0
:100200000FBEEDBEDF91CF911F910F91FF90EF9048
:10021000089588E691E00E94FF0240E060E088E6F1
:1002200091E00E94D2026AE571E088E691E00E94C6
:10023000030941E060E088E691E00E94D20263E5B4
:1002400071E088E691E00C9403090F931F93CF931C
:10025000DF938F3F910509F044F46FEF70E0681B66
:10026000790BEC0100E010E015C0811522E0920747
:100270004CF4CFEFD1E0C81BD90B8C011A9560E08C
:1002800070E008C0BC0172500FEF12E0081B190BA0
:10029000C0E0D0E089E00E945805B8018BE00E94E0
:1002A0005805BE018AE0DF91CF911F910F910C9408
:1002B0005805CF93DF93C1E086E891E00E94B9052D
:1002C00020915201892B09F04DC081C064E271E098
:1002D0008AE591E00E94370864E271E083E591E0ED
:1002E0000E943708C093500110924F0110924E01A6
:1002F000E3CF6D3509F40DC06B3749F464E271E06A
:1003000081E691E00E943708C0935101D5CF6D3747
:1003100019F4C0935201D0CF809150018130C1F4C3
:1003200020914E0130914F01203131051CF48AE5B6
:1003300091E002C083E591E00E947D0880914E012A
:1003400090914F01019690934F0180934E01B4CF4D
:1003500080915101813009F0AFCF81E691E00E9498
:100360007D08AACF2223B1F132C0809151018130A2
:10037000A1F40E94D600EC0190934D0180934C01B2
:100380006EE071E086E891E00E9439094AE050E0B1
:10039000BE0186E891E00E94FF0980915001813002
:1003A00011F40E9409011092510110925001109213
:1003B000520180914C0190914D010E94250162E310
:1003C00070E080E090E0DF91CF910C94ED0421305B
:1003D00081F7CBCF86E891E00E94E805682F8B3546
:1003E00009F087CF73CFCF92EF920F9382E0C82EA0
:1003F00093E0E92E04E025E046E06CE088E691E039
:100400000E94BA0364E271E081E691E00E941A085A
:1004100065E271E08AE591E00E941A086CE271E001
:1004200083E591E00F91EF90CF900C941A080C9413
:100430008900CF93DF93EC0160E08E810E9442043B
:1004400081E090E00E94130561E08E810E944204E9
:1004500081E090E00E94130560E08E810E944204DA
:1004600084E690E0DF91CF910C941305CF92DF9258
:10047000EF92FF920F931F93CF93DF937C01C0E025
:10048000D0E0C62ED12C87010C0F1D1F61E0F801B2
:1004900087810E940A04B6010C2E02C075956795EB
:1004A0000A94E2F761707727F80187810E9442047D
:1004B0002196C430D10539F7C701DF91CF911F9143
:1004C0000F91FF90EF90DF90CF900C941902CF9294
:1004D000DF92EF92FF920F931F93CF93DF937C01F4
:1004E000C0E0D0E0C62ED12C87010C0F1D1F61E0AB
:1004F000F80187810E940A04B6010C2E02C075958E
:1005000067950A94E2F761707727F80187810E9466
:1005100042042196C830D10539F7C701DF91CF9148
:100520001F910F91FF90EF90DF90CF900C941902E4
:100530001F93CF93DF93EC01162F642F8C810E94C1
:1005400042048D818F3F19F060E00E9442048F8544
:10055000612F84FF06C0CE01DF91CF911F910C94D3
:10056000670270E084E0759567958A95E1F7CE01A2
:100570000E943602612FCE01DF91CF911F910C9422
:10058000360241E00E94980281E090E0089540E048
:100590000C949802FC016089262F2460208B6C60EB
:1005A0000C94C702CF93DF93CDB7DEB728970FB671
:1005B000F894DEBF0FBECDBF28E0E6E0F1E0DE013B
:1005C000119601900D922A95E1F7FC0123894217BB
:1005D00010F0422F4150FE013196E40FF11DE40F5F
:1005E000F11D2081260F2068622F28960FB6F894FF
:1005F000DEBF0FBECDBFDF91CF910C94C70261E08B
:100600000E94C70280ED97E00C941305CF93DF930F
:10061000EC01423018F08F8588608F874B8B1C8AE5
:10062000222329F0413019F48F8584608F8780E57B
:1006300093EC0E94130560E08C810E94420460E00C
:100640008E810E9442048D818F3F19F060E00E94EC
:1006500042046F8564FD1DC063E0CE010E94360236
:1006600084E991E10E94130563E0CE010E94360205
:1006700084E991E10E94130563E0CE010E943602F5
:1006800086E990E00E94130562E0CE010E943602E6
:1006900016C06062CE010E94C70284E991E10E9407
:1006A00013056F856062CE010E94C70286E990E063
:1006B0000E9413056F856062CE010E94C7026F859C
:1006C0006062CE010E94C70284E0888BCE010E9446
:1006D000CA02CE010E94FF0282E0898B66E0CE0151
:1006E000DF91CF910C94C7026F927F928F92AF925D
:1006F000CF92EF920F931F93CF93DF93CDB7DEB7D7
:100700003C01162F842F5D854E853F859889F30126
:10071000848325830683E782C086A18682865387E9
:1007200044873587968761E00E940A04F30185813A
:100730008F3F19F061E00E940A0461E0F3018681B5
:100740000E940A04112319F0F301178603C080E107
:10075000F301878720E041E060E1C301DF91CF91A1
:100760001F910F91EF90CF90AF908F907F906F90EF
:100770000C9406038F92AF92CF92EF920F93DC010D
:1007800013961C921E921297E7E3F1E0ED93FC930F
:100790001F921F921F921F928C2CAE2CC02EE22E05
:1007A000042F2FEF462F61E00E9474030F900F90EB
:1007B0000F900F900F91EF90CF90AF908F90089582
:1007C000833069F028F48130A1F0823011F514C033
:1007D0008630B1F08730C1F08430D9F404C0809104
:1007E00080008F7703C0809180008F7D8093800090
:1007F000089584B58F7702C084B58F7D84BD089538
:100800008091B0008F7703C08091B0008F7D80937E
:10081000B0000895CF93DF9390E0FC01E458FF4FC0
:100820004491FC01E057FF4F8491882341F190E00F
:10083000880F991FFC01E255FF4F25913491D90192
:100840008C559F4FFC0185919491C82FD92F9FB74C
:10085000F8948C91611106C0409584238C93888113
:10086000842308C0623041F4242F209582238C9386
:100870008881842B888302C0842B8C939FBFDF9157
:10088000CF9108950F931F93CF93DF931F92CDB70E
:10089000DEB7282F30E0F901E859FF4F8491F901C4
:1008A000E458FF4F1491F901E057FF4F04910023E2
:1008B000D1F0882321F069830E94E0036981E02F51
:1008C000F0E0EE0FFF1FEC55FF4F85919491DC0196
:1008D0009FB7F8948C91611103C01095812301C0DA
:1008E000812B8C939FBF0F90DF91CF911F910F9120
:1008F00008951F920F920FB60F9211242F933F93DA
:100900008F939F93AF93BF9380917D0190917E01D0
:10091000A0917F01B091800130918501232F2D5F3F
:100920002D3720F40196A11DB11D05C0232F2A5794
:100930000296A11DB11D2093850180937D019093A6
:100940007E01A0937F01B0938001809181019091FD
:100950008201A0918301B09184010196A11DB11D76
:100960008093810190938201A0938301B0938401CD
:10097000BF91AF919F918F913F912F910F900FBE9B
:100980000F901F9018950F931F939FB7F8940091A5
:10099000810110918201209183013091840186B5FB
:1009A000A89B06C08F3F21F00F5F1F4F2F4F3F4F77
:1009B0009FBF322F212F102F0027080F111D211D3F
:1009C000311D42E0000F111F221F331F4A95D1F73E
:1009D000B801C9011F910F910895CF92DF92EF9254
:1009E000FF92CF93DF936B017C010E94C304EB0164
:1009F0000EC00E94C3046C1B7D0B683E734038F030
:100A000081E0C81AD108E108F108C851DC4FC114CF
:100A1000D104E104F10469F7DF91CF91FF90EF90E9
:100A2000DF90CF900895019739F0880F991F880FB4
:100A3000991F02970197F1F70895789484B5826021
:100A400084BD84B5816084BD85B5826085BD85B572
:100A5000816085BDEEE6F0E0808181608083E1E821
:100A6000F0E0108280818260808380818160808359
:100A7000E0E8F0E0808181608083E1EBF0E080815C
:100A800084608083E0EBF0E0808181608083EAE72E
:100A9000F0E08081846080838081826080838081B7
:100AA000816080838081806880831092C100089576
:100AB0001F93CF93DF93182FEB0161E00E940A048C
:100AC000209711F460E004C0CF3FD10539F461E014
:100AD000812FDF91CF911F910C944204E12FF0E020
:100AE000E859FF4FE491E330B9F028F4E13051F0D8
:100AF000E230B1F50CC0E63019F1E73049F1E430ED
:100B000079F514C084B5806884BDC7BD2EC084B596
:100B1000806284BDC8BD29C08091800080688093B8
:100B20008000D0938900C09388001FC0809180000E
:100B3000806280938000D0938B00C0938A0015C0A0
:100B40008091B00080688093B000C093B3000DC066
:100B50008091B00080628093B000C093B40005C063
:100B6000C038D1050CF0B3CFADCFDF91CF911F913D
:100B70000895FC0184859585FC01E05CFF4F208190
:100B80003181FC01EE5BFF4F80819181281B390B85
:100B90002F733327C9010895FC0184859585FC01D5
:100BA000E05CFF4F40815181FC01EE5BFF4F2081F3
:100BB00031814217530741F00190F081E02DE80F99
:100BC000F91F208130E002C02FEF3FEFC9010895E7
:100BD000FC0184859585FC01E05CFF4F40815181DB
:100BE000FC01EE5BFF4F208131814217530781F0FA
:100BF000A081B181A80FB91F8C91208131812F5F15
:100C00003F4F2F73332731832083282F30E002C0DA
:100C10002FEF3FEFC9010895FC0186859785FC0100
:100C2000E05CFF4FDC01AE5BBF4F408151812D91F5
:100C30003C91119742175307C1F70895CF93DF9363
:100C4000FC0186859785DC01A05CBF4F2D913C910E
:100C500011972F5F3F4F2F733327EC01CE5BDF4F90
:100C60004881598124173507D9F30D90BC91A02DE7
:100C7000A80FB91F6C93A685B785A05CBF4F1196CE
:100C80003C932E93A689B7892C9181E090E0058C46
:100C900002C0880F991F0A94E2F7282B2C9381E059
:100CA00090E0DF91CF91089508951F920F920FB6B3
:100CB0000F9211242F933F934F938F939F93EF9312
:100CC000FF934091C6008091290290912A020196DB
:100CD0008F73992720912B0230912C028217930752
:100CE00059F0E0912902F0912A02E751FE4F40832A
:100CF00090932A0280932902FF91EF919F918F9107
:100D00004F913F912F910F900FBE0F901F9018950C
:100D100086E891E00E94B905892B11F00C945406E5
:100D200008951F920F920FB60F9211242F933F93A5
:100D30008F939F93EF93FF932091E5013091E6010C
:100D40008091E7019091E8012817390731F48091EB
:100D5000C1008F7D8093C10014C0E091E701F09144
:100D6000E801EB55FE4F20818091E7019091E80169
:100D700001968F7399279093E8018093E701209360
:100D8000C600FF91EF919F918F913F912F910F900E
:100D90000FBE0F901F901895CF92DF92EF92FF92A7
:100DA000CF93DF93EC016A017B01411581EE580777
:100DB00061057105F9F0EC89FD8981E090E00E8C08
:100DC00002C0880F991F0A94E2F7808360E079E0FF
:100DD0008DE390E0A70196010E94190A2150310984
:100DE000410951095695479537952795211580E179
:100DF000380798F0EC89FD89108260E874E88EE18C
:100E000090E0A70196010E94190A21503109410979
:100E100051095695479537952795E889F989308383
:100E2000EA89FB892083EE89FF89408181E090E097
:100E30009C010A8C02C0220F331F0A94E2F7422B56
:100E40004083EE89FF8940819C010B8C02C0220FF8
:100E5000331F0A94E2F7422B4083EE89FF894081D9
:100E60009C010C8C02C0220F331F0A94E2F7422B24
:100E70004083EE89FF8920810D8C02C0880F991F65
:100E80000A94E2F7809582238083DF91CF91FF90CF
:100E9000EF90DF90CF900895109289011092880111
:100EA00088EE93E0A0E0B0E080938A0190938B01FC
:100EB000A0938C01B0938D018FE391E09093870113
:100EC0008093860189EE91E0909393018093920143
:100ED00085EA91E0909395018093940185EC90E0F0
:100EE000909397018093960184EC90E09093990100
:100EF0008093980180EC90E090939B0180939A01FD
:100F000081EC90E090939D0180939C0186EC90E0B1
:100F100090939F0180939E0184E08093A00183E0E1
:100F20008093A10187E08093A20185E08093A301D3
:100F300081E08093A40108950E941D050E94950000
:100F4000C8E8D6E00E9459012097E1F30E94880684
:100F5000F9CFFC01808191810C94DC0ACF93DF935F
:100F6000EC0188819981009711F00E94DC0A1982B6
:100F700018821D821C821B821A82DF91CF910895F4
:100F80000F931F93CF93DF93EC018B016F5F7F4F24
:100F9000888199810E94780B009731F0998388832A
:100FA0001B830A8381E001C080E0DF91CF911F9114
:100FB0000F910895CF93DF93EC0188819981892B5C
:100FC00031F08A819B818617970708F00CC0CE010B
:100FD0000E94C007882349F08C819D81892B19F4D8
:100FE000E881F981108281E001C080E0DF91CF913A
:100FF0000895EF92FF920F931F93CF93DF93EC012D
:101000007B018A01BA010E94DA07811104C0CE0176
:101010000E94AE0707C01D830C83B70188819981A8
:101020000E94670CCE01DF91CF911F910F91FF902D
:10103000EF900895DC0111961C921E9213961C925B
:101040001E92129715961C921E92149716961C9239
:101050006115710559F0DB010D900020E9F7AD0134
:1010600041505109461B570B0C94F9070895CF9333
:10107000DF93D82FC92F6115710561F0DB010D9049
:101080000020E9F7AD0141505109461B570B0E9462
:10109000F90702C00E94AE078D2F9C2FDF91CF91E0
:1010A0000895EF92FF920F931F93CF93DF93EC017C
:1010B0007B010C811D816115710511F480E016C062
:1010C0004115510591F0040F151FB8010E94DA0770
:1010D0008823A1F3288139818C819D81B701820FFA
:1010E000931F0E94670C1D830C8381E0DF91CF91D9
:1010F0001F910F91FF90EF900895CF93DF9300D051
:10110000CDB7DEB769831A8241E050E0BE016F5F60
:101110007F4F0E9451080F900F90DF91CF9108955B
:10112000FC01248135816217730748F48081918125
:10113000009729F0FC01E60FF71F8081089580E0F9
:1011400008950F931F93CF93DF93EB014115510542
:10115000E9F02097D9F0FC010481158120173107AF
:1011600008F013C041505109021B130B40175107DF
:1011700008F48A01FC0160817181620F731FA8016C
:10118000CE010E946E0CC00FD11F1882DF91CF914B
:101190001F910F910895CF92DF92EF92FF920F93DC
:1011A0001F93CF93DF936C01EB017A01E60EF71EDC
:1011B00000E010E00BC06991D601ED91FC91019027
:1011C000F081E02DC6010995080F191FCE15DF0526
:1011D00091F7C801DF91CF911F910F91FF90EF9090
:1011E000DF90CF900895DB010D900020E9F7AD016D
:1011F00041505109461B570BDC01ED91FC910280D7
:10120000F381E02D0994AF92BF92CF92DF92EF92DB
:10121000FF920F931F93CF93DF937C016B0100E04C
:1012200010E0C0E0D0E011C0D701ED91FC91A080AA
:10123000B180B801C6010E949008682FC701F5016E
:101240000995C80FD91F0F5F1F4FD60114968D91B6
:101250009C9115970817190738F3CE01DF91CF91AC
:101260001F910F91FF90EF90DF90CF90BF90AF90C4
:1012700008950C94F308DC01ED91FC910190F0814C
:10128000E02D09940F931F93CF93DF93EC016DE052
:101290000E943B098C016AE0CE010E943B099C013F
:1012A000200F311FC901DF91CF911F910F91089538
:1012B0004F925F926F927F929F92AF92BF92CF9226
:1012C000DF92EF92FF920F931F93CF93DF93CDB7EF
:1012D000DEB7A1970FB6F894DEBF0FBECDBF5C019D
:1012E0006A017B01922E19A281E0821710F08AE038
:1012F000982E8E010F5D1F4F492C512C612C712CA3
:10130000C701B601A30192010E94190A8C2D929E79
:1013100080191124015011098A3014F4805D01C034
:10132000895CF801808369017A01C114D104E10468
:10133000F10431F7B801C5010E94F308A1960FB678
:10134000F894DEBF0FBECDBFDF91CF911F910F91FB
:10135000FF90EF90DF90CF90BF90AF909F907F90E5
:101360006F905F904F900895CF92DF92EF92FF922F
:101370000F931F93CF93DF93EC016A017B0121153B
:10138000310579F4E881F9810190F081E02D642F35
:10139000DF91CF911F910F91FF90EF90DF90CF9051
:1013A00009942A30310519F477FD0EC02AE0B701FF
:1013B000A601CE01DF91CF911F910F91FF90EF9089
:1013C000DF90CF900C9458096DE20E943B098C018C
:1013D00044275527BA014C195D096E097F092AE097
:1013E000CE010E945809080F191FC801DF91CF9143
:1013F0001F910F91FF90EF90DF90CF9008950F9382
:101400001F93CF93DF93EC019A01AB01662757FD41
:101410006095762F0E94B4098C01CE010E9442098A
:101420009801280F391FC901DF91CF911F910F91AA
:101430000895A1E21A2EAA1BBB1BFD010DC0AA1F15
:10144000BB1FEE1FFF1FA217B307E407F50720F02D
:10145000A21BB30BE40BF50B661F771F881F991FA8
:101460001A9469F760957095809590959B01AC01F1
:10147000BD01CF010895EE0FFF1F0590F491E02DFF
:1014800009940F931F93CF93DF938230910510F44B
:1014900082E090E0E0912F02F091300220E030E015
:1014A000C0E0D0E023C04081518148175907A8F01F
:1014B0004817590761F482819381209719F09B8323
:1014C0008A832EC09093300280932F0229C0211569
:1014D000310529F04217530710F0A90102C0BE01DF
:1014E000DF0102811381EF019A01F8013097D9F6EB
:1014F0002115310509F1281B390B2430310590F4F1
:1015000012968D919C9113976115710521F0FB0145
:101510009383828304C09093300280932F02FD0155
:10152000329644C0FD01E20FF31F81939193225044
:1015300031092D933C933AC020912D0230912E0217
:10154000232B41F4209102013091030130932E02AC
:1015500020932D02209100013091010121153105C8
:1015600041F42DB73EB74091040150910501241B71
:10157000350BE0912D02F0912E02E217F307A0F453
:101580002E1B3F0B2817390778F0AC014E5F5F4FD9
:101590002417350748F04E0F5F1F50932E024093DB
:1015A0002D028193919302C0E0E0F0E0CF01DF9142
:1015B000CF911F910F910895EF92FF920F931F9378
:1015C000CF93DF93009709F48EC0DC011297139636
:1015D0001C921E921297E0902F02F0903002E114BC
:1015E000F10489F42D913C911197280F391F8091B6
:1015F0002D0290912E028217930789F5B0932E0247
:10160000A0932D0270C0E70120E030E001C0EA01A4
:10161000CA17DB0738F44A815B819E0141155105E9
:10162000B1F722C0AC0142505109FA01D383C28301
:1016300000811181BC01600F711F6C177D0761F47F
:1016400068817981600F711F6E5F7F4F7183608346
:101650006A817B81738362832115310529F4B093FC
:101660003002A0932F023FC0F901B383A283E901A6
:1016700049915991C40FD51FAC17BD0771F4DC0116
:101680009E918E91840F951F02969183808312966E
:101690008D919C91139793838283A0E0B0E002C068
:1016A000D7017C01F701828193810097C9F7C701B7
:1016B000029620813181820F931F20912D0230915B
:1016C0002E022817390779F4109729F41092300266
:1016D00010922F0204C013961C921E921297F09241
:1016E0002E02E0922D02CDB7DEB7E6E00C94AD0CF1
:1016F000A0E0B0E0EEE7FBE00C948B0CEC0100976F
:1017000029F4CB010E94410AEC01B4C0DC01A60F10
:10171000B71FFC013297AE17BF0718F4C0E0D0E046
:10172000A9C00081118106171707B0F00530110517
:1017300008F4A0C0C80104978617970708F49AC058
:1017400002501109061B170B0D931D9371836083C3
:10175000CD010E94DC0A8EC06B01C01AD10A7C0147
:10176000E00EF11EE0912F02F091300220E030E017
:1017700080E090E048C0EE15FF05D1F580809180B3
:10178000540142E0A40EB11CAC14BD0488F17401F4
:10179000EC18FD08670122E0C20ED11C9E01225008
:1017A000310945E0C416D10478F042815381139683
:1017B0005C934E9312971196FC92EE92F90171830D
:1017C00060833A2F2B2F09C00E5F1F4F080D191D84
:1017D000D9010D931C9332812381009721F0FC01E4
:1017E0003283238347C030932F022093300242C0BC
:1017F000808191812817390708F49C015281438127
:10180000CF01E52FF42F309709F0B5CF80912D024D
:1018100090912E028E159F05F1F426173707D8F404
:101820008091000190910101009741F48DB79EB71E
:101830002091040130910501821B930BA817B90771
:1018400008F06CCFB0932E02A0932D02FE013297C8
:10185000718360830FC0CB010E94410A7C01009715
:1018600009F45CCFA801BE010E945E0CCE010E946B
:10187000DC0AE701CE01CDB7DEB7ECE00C94A70C93
:10188000FC0188279927E89421912032E9F3293037
:1018900010F02E30C8F32B3241F02D3239F4689419
:1018A00004C00E947D0C820F911D219120532A308B
:1018B000C0F31EF4909581959F4F0895FB01DC01C4
:1018C00002C001900D9241505040D8F70895FB019D
:1018D000DC0101900D920020E1F70895FB01DC018D
:1018E0004150504048F001900D920020C9F701C0CE
:1018F0001D9241505040E0F708957AE0979F902D57
:10190000879F802D910D112408952F923F924F9221
:101910005F926F927F928F929F92AF92BF92CF927F
:10192000DF92EF92FF920F931F93CF93DF93CDB788
:10193000DEB7CA1BDB0B0FB6F894DEBF0FBECDBF00
:1019400009942A88398848885F846E847D848C84D1
:101950009B84AA84B984C884DF80EE80FD800C81DA
:101960001B81AA81B981CE0FD11D0FB6F894DEBFBD
:101970000FBECDBFED01089510E0CCEBD0E004C068
:10198000FE010E943D0A2296CE3BD107C9F7F8948A
:02199000FFCF87
:10199200000031022000000040001400540054688E
:1019A20065204C454420636F6C6F72206973206E12
:1019B2006F773A200048656C6C6F2C00576F726C21
:1019C20064210000000000C102CB08000000001EDC
:0C19D20006CB08B905E805CC050C0600A2
:00000001FF
