:100000000C945F000C9487000C9487000C9487007C
:100010000C9487000C9487000C9487000C94870044
:100020000C9487000C9487000C9487000C94870034
:100030000C9487000C9487000C9487000C94870024
:100040000C941A020C9487000C94EC030C94280472
:100050000C9487000C9487000C9487000C94870004
:100060000C9487000C948700000000070002010038
:100070000003040600000000000000000102040864
:100080001020408001020408102001020408102002
:10009000040404040404040402020202020203032E
:1000A0000303030300000000250028002B000000CC
:1000B0000000240027002A007701E3047D011124B9
:1000C0001FBECFEFD8E0DEBFCDBF11E0A0E0B1E0B2
:1000D000EAE5F4E102C005900D92A835B107D9F721
:1000E00012E0A8E5B1E001C01D92A631B107E1F729
:1000F00010E0CCEBD0E004C02297FE010E94A107E3
:10010000C83BD107C9F70E9433050C94200A0C9410
:10011000000084EF91E0909359018093580140E8EA
:1001200055E260E070E08BE691E00E94630461E0DC
:1001300089E00E94AB0161E08AE00E94AB0161E0CE
:100140008BE00E94AB0161E08DE00C94AB01EF927B
:10015000FF920F931F93CF93DF93CDB7DEB7EDB62A
:10016000FEB640915F01509160014F5F5F4F8DB7C8
:100170009EB7841B950B0FB6F8949EBF0FBE8DBF24
:100180000DB71EB70F5F1F4F20E030E0B8018BE5C1
:1001900091E00E942706C8010E94A4090FB6F894B6
:1001A000FEBE0FBEEDBEDF91CF911F910F91FF906C
:1001B000EF9008950F931F93CF93DF938F3F910597
:1001C00009F044F46FEF70E0681B790BEC0100E07C
:1001D00010E015C0811522E092074CF4CFEFD1E07A
:1001E000C81BD90B8C011A9560E070E008C0BC01F7
:1001F00072500FEF12E0081B190BC0E0D0E089E04D
:100200000E94EF02B8018BE00E94EF02BE018AE07B
:10021000DF91CF911F910F910C94EF02CF93DF9359
:10022000D1E08BE691E00E94500320915A01892B86
:1002300059F55AC060E371E08BE591E00E94CE056C
:1002400066E071E006C0CD3749F4D0935A0163E10E
:1002500071E08BE691E00E94A806E3CF6C2F8BE55E
:1002600091E00E9414066EE171E08BE691E00E943D
:1002700089066C2F772767FD709540E150E08BE68B
:1002800091E00E946307CDCF222329F12DC00E9467
:10029000A700EC01909359018093580161E371E04C
:1002A0008BE691E00E9489064AE050E0BE018BE6B1
:1002B00091E00E94630710925A0180915801909139
:1002C00059010E94DA0062E370E080E090E0DF9183
:1002D000CF910C948E028BE691E00E947F03C82F91
:1002E0008B3709F0B0CFA6CF213039F7D0CF60E3FC
:1002F00071E08BE591E00C94B1058BE591E00C94F5
:100300004005833069F028F48130A1F0823011F586
:1003100014C08630B1F08730C1F08430D9F404C005
:10032000809180008F7703C0809180008F7D8093C3
:100330008000089584B58F7702C084B58F7D84BD19
:1003400008958091B0008F7703C08091B0008F7DB9
:100350008093B0000895CF93DF9390E0FC01E458C0
:10036000FF4F4491FC01E057FF4F8491882341F1F6
:1003700090E0880F991FFC01E255FF4F25913491C1
:10038000D9018C559F4FFC0185919491C82FD92F8D
:100390009FB7F8948C91611106C0409584238C938B
:1003A0008881842308C0623041F4242F2095822361
:1003B0008C938881842B888302C0842B8C939FBF6D
:1003C000DF91CF9108950F931F93CF93DF931F92E7
:1003D000CDB7DEB7282F30E0F901E859FF4F8491FF
:1003E000F901E458FF4F1491F901E057FF4F0491D0
:1003F0000023D1F0882321F069830E948101698163
:10040000E02FF0E0EE0FFF1FEC55FF4F8591949128
:10041000DC019FB7F8948C91611103C01095812382
:1004200001C0812B8C939FBF0F90DF91CF911F91C3
:100430000F9108951F920F920FB60F9211242F93D0
:100440003F938F939F93AF93BF938091620190915D
:100450006301A0916401B091650130916A01232F7D
:100460002D5F2D3720F40196A11DB11D05C0232F4E
:100470002A570296A11DB11D20936A018093620143
:1004800090936301A0936401B0936501809166012C
:1004900090916701A0916801B09169010196A11D39
:1004A000B11D8093660190936701A0936801B0939A
:1004B0006901BF91AF919F918F913F912F910F90C3
:1004C0000FBE0F901F9018950F931F939FB7F8942E
:1004D00000916601109167012091680130916901D6
:1004E00086B5A89B06C08F3F21F00F5F1F4F2F4F8F
:1004F0003F4F9FBF322F212F102F0027080F111DB4
:10050000211D311D42E0000F111F221F331F4A958C
:10051000D1F7B801C9011F910F910895CF92DF92D1
:10052000EF92FF92CF93DF936B017C010E946402F4
:10053000EB010EC00E9464026C1B7D0B683E734091
:1005400038F081E0C81AD108E108F108C851DC4F41
:10055000C114D104E104F10469F7DF91CF91FF9058
:10056000EF90DF90CF900895789484B5826084BD39
:1005700084B5816084BD85B5826085BD85B58160A7
:1005800085BDEEE6F0E0808181608083E1E8F0E007
:100590001082808182608083808181608083E0E836
:1005A000F0E0808181608083E1EBF0E08081846015
:1005B0008083E0EBF0E0808181608083EAE7F0E017
:1005C000808184608083808182608083808181607B
:1005D00080838081806880831092C10008951F937A
:1005E000CF93DF93182FEB0161E00E94AB012097BE
:1005F00011F460E004C0CF3FD10539F461E0812FF0
:10060000DF91CF911F910C94E301E12FF0E0E859C5
:10061000FF4FE491E330B9F028F4E13051F0E230DB
:10062000B1F50CC0E63019F1E73049F1E43079F565
:1006300014C084B5806884BDC7BD2EC084B58062F7
:1006400084BDC8BD29C080918000806880938000EF
:10065000D0938900C09388001FC080918000806281
:1006600080938000D0938B00C0938A0015C0809146
:10067000B00080688093B000C093B3000DC080913B
:10068000B00080628093B000C093B40005C0C03851
:10069000D1050CF0B3CFADCFDF91CF911F9108956D
:1006A000FC0184859585FC01E05CFF4F2081318150
:1006B000FC01EE5BFF4F80819181281B390B2F736A
:1006C0003327C9010895FC0184859585FC01E05C10
:1006D000FF4F40815181FC01EE5BFF4F2081318152
:1006E0004217530741F00190F081E02DE80FF91F08
:1006F000208130E002C02FEF3FEFC9010895FC01D7
:1007000084859585FC01E05CFF4F40815181FC01AF
:10071000EE5BFF4F208131814217530781F0A081AA
:10072000B181A80FB91F8C91208131812F5F3F4F7C
:100730002F73332731832083282F30E002C02FEF1F
:100740003FEFC9010895FC0186859785FC01E05CB7
:10075000FF4FDC01AE5BBF4F408151812D913C9139
:10076000119742175307C1F70895CF93DF93FC0108
:1007700086859785DC01A05CBF4F2D913C91119738
:100780002F5F3F4F2F733327EC01CE5BDF4F488144
:10079000598124173507D9F30D90BC91A02DA80FCE
:1007A000B91F6C93A685B785A05CBF4F11963C938B
:1007B0002E93A689B7892C9181E090E0058C02C028
:1007C000880F991F0A94E2F7282B2C9381E090E080
:1007D000DF91CF91089508951F920F920FB60F9257
:1007E00011242F933F934F938F939F93EF93FF93F6
:1007F0004091C60080910E0290910F0201968F7376
:10080000992720911002309111028217930759F015
:10081000E0910E02F0910F02E253FE4F408390935D
:100820000F0280930E02FF91EF919F918F914F9154
:100830003F912F910F900FBE0F901F9018958BE650
:1008400091E00E945003892B11F00C94EB03089562
:100850001F920F920FB60F9211242F933F938F93F5
:100860009F93EF93FF932091CA013091CB01809128
:10087000CC019091CD012817390731F48091C10046
:100880008F7D8093C10014C0E091CC01F091CD0127
:10089000E657FE4F20818091CC019091CD010196C9
:1008A0008F7399279093CD018093CC012093C6003C
:1008B000FF91EF919F918F913F912F910F900FBEDC
:1008C0000F901F901895CF92DF92EF92FF92CF93E7
:1008D000DF93EC016A017B01411581EE5807610548
:1008E0007105F9F0EC89FD8981E090E00E8C02C081
:1008F000880F991F0A94E2F7808360E079E08DE326
:1009000090E0A70196010E947D072150310941091D
:1009100051095695479537952795211580E1380758
:1009200098F0EC89FD89108260E874E88EE190E02F
:10093000A70196010E947D07215031094109510903
:100940005695479537952795E889F9893083EA893F
:10095000FB892083EE89FF89408181E090E09C0142
:100960000A8C02C0220F331F0A94E2F7422B408305
:10097000EE89FF8940819C010B8C02C0220F331F3E
:100980000A94E2F7422B4083EE89FF8940819C0163
:100990000C8C02C0220F331F0A94E2F7422B4083D3
:1009A000EE89FF8920810D8C02C0880F991F0A945F
:1009B000E2F7809582238083DF91CF91FF90EF90C3
:1009C000DF90CF90089510926E0110926D0188EE25
:1009D00093E0A0E0B0E080936F0190937001A0934A
:1009E0007101B09372018CE491E090936C0180935B
:1009F0006B018EEC91E090937801809377018AE807
:100A000091E090937A018093790185EC90E0909346
:100A10007C0180937B0184EC90E090937E01809335
:100A20007D0180EC90E09093800180937F0181ECC8
:100A300090E0909382018093810186EC90E0909306
:100A400084018093830184E08093850183E0809317
:100A5000860187E08093870185E08093880181E0AB
:100A60008093890108950E94B4020E948900CFE119
:100A7000D4E00E940E012097E1F30E941F04F9CFF9
:100A8000FC01808191810C944008CF93DF93EC01AD
:100A900088819981009711F00E944008198218827C
:100AA0001D821C821B821A82DF91CF9108950F93C1
:100AB0001F93CF93DF93EC018B016F5F7F4F888192
:100AC00099810E94DC08009731F0998388831B8309
:100AD0000A8381E001C080E0DF91CF911F910F91E7
:100AE0000895CF93DF93EC0188819981892B31F0B0
:100AF0008A819B818617970708F00CC0CE010E945F
:100B00005705882349F08C819D81892B19F4E88150
:100B1000F981108281E001C080E0DF91CF910895DA
:100B2000EF92FF920F931F93CF93DF93EC017B0122
:100B30008A01BA010E947105811104C0CE010E9490
:100B4000450507C01D830C83B701888199810E94E8
:100B5000CB09CE01DF91CF911F910F91FF90EF90C4
:100B60000895DC0111961C921E9213961C921E92FF
:100B7000129715961C921E92149716961C92611548
:100B8000710559F0DB010D900020E9F7AD014150EE
:100B90005109461B570B0C9490050895CF93DF9392
:100BA000D82FC92F6115710561F0DB010D90002070
:100BB000E9F7AD0141505109461B570B0E949005C2
:100BC00002C00E9445058D2F9C2FDF91CF91089583
:100BD000EF92FF920F931F93CF93DF93EC017B0172
:100BE0000C811D816115710511F480E016C041155D
:100BF000510591F0040F151FB8010E94710588235B
:100C0000A1F3288139818C819D81B701820F931FC7
:100C10000E94CB091D830C8381E0DF91CF911F914E
:100C20000F91FF90EF900895CF93DF9300D0CDB751
:100C3000DEB769831A8241E050E0BE016F5F7F4FEB
:100C40000E94E8050F900F90DF91CF9108950F93C8
:100C50001F93CF93DF93EB0141155105E9F02097E6
:100C6000D9F0FC01048115812017310708F013C069
:100C700041505109021B130B4017510708F48A0118
:100C8000FC0160817181620F731FA801CE010E9477
:100C9000D209C00FD11F1882DF91CF911F910F9100
:100CA0000895CF92DF92EF92FF920F931F93CF930D
:100CB000DF936C01EB017A01E60EF71E00E010E015
:100CC0000BC06991D601ED91FC910190F081E02D6E
:100CD000C6010995080F191FCE15DF0591F7C80148
:100CE000DF91CF911F910F91FF90EF90DF90CF9008
:100CF0000895DB010D900020E9F7AD014150510945
:100D0000461B570BDC01ED91FC910280F381E02D35
:100D100009940C947906DC01ED91FC910190F0812D
:100D2000E02D09940F931F93CF93DF93EC016DE0B7
:100D30000E948B068C016AE0CE010E948B069C010A
:100D4000200F311FC901DF91CF911F910F9108959D
:100D50000F931F93CF93DF93EC010E9479068C01D0
:100D6000CE010E9492069801280F391FC901DF9118
:100D7000CF911F910F9108954F925F926F927F9242
:100D80009F92AF92BF92CF92DF92EF92FF920F931A
:100D90001F93CF93DF93CDB7DEB7A1970FB6F8942B
:100DA000DEBF0FBECDBF5C016A017B01922E19A28E
:100DB00081E0821710F08AE0982E8E010F5D1F4FA0
:100DC000492C512C612C712CC701B601A301920151
:100DD0000E947D078C2D929E8019112401501109CB
:100DE0008A3014F4805D01C0895CF8018083690158
:100DF0007A01C114D104E104F10431F7B801C5014D
:100E00000E947906A1960FB6F894DEBF0FBECDBF43
:100E1000DF91CF911F910F91FF90EF90DF90CF90D6
:100E2000BF90AF909F907F906F905F904F9008958C
:100E3000CF92DF92EF92FF920F931F93CF93DF93A6
:100E4000EC016A017B012115310579F4E881F98112
:100E50000190F081E02D642FDF91CF911F910F91D0
:100E6000FF90EF90DF90CF9009942A30310519F46C
:100E700077FD0EC02AE0B701A601CE01DF91CF9128
:100E80001F910F91FF90EF90DF90CF900C94BC06D4
:100E90006DE20E948B068C0144275527BA014C193C
:100EA0005D096E097F092AE0CE010E94BC06080F89
:100EB000191FC801DF91CF911F910F91FF90EF9003
:100EC000DF90CF9008950F931F93CF93DF93EC01A2
:100ED0009A01AB01662757FD6095762F0E9418078F
:100EE0008C01CE010E9492069801280F391FC9017A
:100EF000DF91CF911F910F910895A1E21A2EAA1BA5
:100F0000BB1BFD010DC0AA1FBB1FEE1FFF1FA217B9
:100F1000B307E407F50720F0A21BB30BE40BF50BB6
:100F2000661F771F881F991F1A9469F7609570953F
:100F3000809590959B01AC01BD01CF010895EE0F06
:100F4000FF1F0590F491E02D09940F931F93CF9309
:100F5000DF938230910510F482E090E0E09114027A
:100F6000F091150220E030E0C0E0D0E023C04081E5
:100F7000518148175907A8F04817590761F4828131
:100F80009381209719F09B838A832EC0909315023A
:100F90008093140229C02115310529F04217530707
:100FA00010F0A90102C0BE01DF0102811381EF012F
:100FB0009A01F8013097D9F62115310509F1281B5E
:100FC000390B2430310590F412968D919C91139732
:100FD0006115710521F0FB019383828304C0909316
:100FE000150280931402FD01329644C0FD01E20F08
:100FF000F31F81939193225031092D933C933AC072
:101000002091120230911302232B41F4209102010E
:1010100030910301309313022093120220910001BA
:10102000309101012115310541F42DB73EB74091B2
:10103000040150910501241B350BE0911202F0913F
:101040001302E217F307A0F42E1B3F0B28173907F2
:1010500078F0AC014E5F5F4F2417350748F04E0F14
:101060005F1F50931302409312028193919302C029
:10107000E0E0F0E0CF01DF91CF911F910F91089553
:10108000EF92FF920F931F93CF93DF93009709F492
:101090008EC0DC01129713961C921E921297E0905C
:1010A0001402F0901502E114F10489F42D913C91A1
:1010B0001197280F391F8091120290911302821705
:1010C000930789F5B0931302A093120270C0E70151
:1010D00020E030E001C0EA01CA17DB0738F44A819A
:1010E0005B819E0141155105B1F722C0AC01425010
:1010F0005109FA01D383C28300811181BC01600FC1
:10110000711F6C177D0761F468817981600F711F11
:101110006E5F7F4F718360836A817B81738362839B
:101120002115310529F4B0931502A09314023FC094
:10113000F901B383A283E90149915991C40FD51FE5
:10114000AC17BD0771F4DC019E918E91840F951F41
:1011500002969183808312968D919C91139793832D
:101160008283A0E0B0E002C0D7017C01F701828158
:1011700093810097C9F7C701029620813181820FC0
:10118000931F20911202309113022817390779F426
:10119000109729F4109215021092140204C01396AD
:1011A0001C921E921297F0921302E0921202CDB797
:1011B000DEB7E6E00C94110AA0E0B0E0E2EEF8E061
:1011C0000C94EF09EC01009729F4CB010E94A507CC
:1011D000EC01B4C0DC01A60FB71FFC013297AE17BB
:1011E000BF0718F4C0E0D0E0A9C000811181061744
:1011F0001707B0F00530110508F4A0C0C801049726
:101200008617970708F49AC002501109061B170B9E
:101210000D931D9371836083CD010E9440088EC0A1
:101220006B01C01AD10A7C01E00EF11EE09114029C
:10123000F091150220E030E080E090E048C0EE152B
:10124000FF05D1F580809180540142E0A40EB11CCD
:10125000AC14BD0488F17401EC18FD08670122E0AC
:10126000C20ED11C9E012250310945E0C416D104A2
:1012700078F04281538113965C934E9312971196A6
:10128000FC92EE92F901718360833A2F2B2F09C0F3
:101290000E5F1F4F080D191DD9010D931C9332814C
:1012A0002381009721F0FC013283238347C03093D0
:1012B00014022093150242C08081918128173907BA
:1012C00008F49C0152814381CF01E52FF42F309720
:1012D00009F0B5CF80911202909113028E159F05EF
:1012E000F1F426173707D8F480910001909101019D
:1012F000009741F48DB79EB720910401309105010C
:10130000821B930BA817B90708F06CCFB093130298
:10131000A0931202FE013297718360830FC0CB014C
:101320000E94A5077C01009709F45CCFA801BE01CB
:101330000E94C209CE010E944008E701CE01CDB74C
:10134000DEB7ECE00C940B0AFC0188279927E8949F
:1013500021912032E9F3293010F02E30C8F32B32DE
:1013600041F02D3239F4689404C00E94E109820FE3
:10137000911D219120532A30C0F31EF49095819540
:101380009F4F0895FB01DC0102C001900D92415076
:101390005040D8F70895FB01DC0101900D92002028
:1013A000E1F70895FB01DC014150504048F0019005
:1013B0000D920020C9F701C01D9241505040E0F746
:1013C00008957AE0979F902D879F802D910D11248D
:1013D00008952F923F924F925F926F927F928F92D9
:1013E0009F92AF92BF92CF92DF92EF92FF920F93B4
:1013F0001F93CF93DF93CDB7DEB7CA1BDB0B0FB6BE
:10140000F894DEBF0FBECDBF09942A88398848887A
:101410005F846E847D848C849B84AA84B984C88410
:10142000DF80EE80FD800C811B81AA81B981CE0F07
:10143000D11D0FB6F894DEBF0FBECDBFED010895EC
:1014400010E0CCEBD0E004C0FE010E94A107229680
:0A145000CE3BD107C9F7F894FFCF97
:10145A00000016022000537472696E67207374616B
:10146A00727400537472696E6720456E6400576522
:10147A0020686176652072656369657665643A20DD
:10148A0000546865204C454420636F6C6F72206974
:10149A0073206E6F773A200000000000B5035106F2
:0814AA0050037F036303A30359
:00000001FF
